{
  "contractName": "TLSDIDEVRegistry",
  "abi": [
    {
      "anonymous": false,
      "inputs": [
        {
          "indexed": true,
          "internalType": "address",
          "name": "owner",
          "type": "address"
        },
        {
          "indexed": false,
          "internalType": "uint64",
          "name": "expiry",
          "type": "uint64"
        },
        {
          "indexed": false,
          "internalType": "uint256",
          "name": "previousChange",
          "type": "uint256"
        }
      ],
      "name": "ExpiryChanged",
      "type": "event"
    },
    {
      "constant": true,
      "inputs": [
        {
          "internalType": "string",
          "name": "",
          "type": "string"
        },
        {
          "internalType": "uint256",
          "name": "",
          "type": "uint256"
        }
      ],
      "name": "identities",
      "outputs": [
        {
          "internalType": "uint256",
          "name": "",
          "type": "uint256"
        }
      ],
      "payable": false,
      "stateMutability": "view",
      "type": "function"
    },
    {
      "constant": true,
      "inputs": [
        {
          "internalType": "address",
          "name": "",
          "type": "address"
        },
        {
          "internalType": "string",
          "name": "",
          "type": "string"
        }
      ],
      "name": "owned",
      "outputs": [
        {
          "internalType": "uint256",
          "name": "",
          "type": "uint256"
        }
      ],
      "payable": false,
      "stateMutability": "view",
      "type": "function"
    },
    {
      "constant": false,
      "inputs": [
        {
          "internalType": "string",
          "name": "_domain",
          "type": "string"
        },
        {
          "internalType": "uint64",
          "name": "_expiry",
          "type": "uint64"
        }
      ],
      "name": "setExpiry",
      "outputs": [],
      "payable": false,
      "stateMutability": "nonpayable",
      "type": "function"
    }
  ],
  "bytecode": "0x608060405234801561001057600080fd5b50610421806100206000396000f3fe608060405234801561001057600080fd5b50600436106100415760003560e01c8063809dc24f14610046578063a65e65a414610135578063bbb18556146101c2575b600080fd5b61011f6004803603604081101561005c57600080fd5b81019080803573ffffffffffffffffffffffffffffffffffffffff1690602001909291908035906020019064010000000081111561009957600080fd5b8201836020820111156100ab57600080fd5b803590602001918460018302840111640100000000831117156100cd57600080fd5b91908080601f016020809104026020016040519081016040528093929190818152602001838380828437600081840152601f19601f82011690508083019250505050505050919291929050505061029b565b6040518082815260200191505060405180910390f35b6101c06004803603604081101561014b57600080fd5b810190808035906020019064010000000081111561016857600080fd5b82018360208201111561017a57600080fd5b8035906020019184600183028401116401000000008311171561019c57600080fd5b9091929391929390803567ffffffffffffffff1690602001909291905050506102d6565b005b610285600480360360408110156101d857600080fd5b81019080803590602001906401000000008111156101f557600080fd5b82018360208201111561020757600080fd5b8035906020019184600183028401116401000000008311171561022957600080fd5b91908080601f016020809104026020016040519081016040528093929190818152602001838380828437600081840152601f19601f820116905080830192505050505050509192919290803590602001909291905050506103a8565b6040518082815260200191505060405180910390f35b600060205281600052604060002081805160208101820180518482526020830160208501208183528095505050505050600091509150505481565b3373ffffffffffffffffffffffffffffffffffffffff167fb4a194699dde40eadc730a2586dbb07249b72179e22a9e29e53aa5d8ce426caa826000803373ffffffffffffffffffffffffffffffffffffffff1673ffffffffffffffffffffffffffffffffffffffff1681526020019081526020016000208686604051808383808284378083019250505092505050908152602001604051809103902054604051808367ffffffffffffffff1667ffffffffffffffff1681526020018281526020019250505060405180910390a2505050565b60018280516020810182018051848252602083016020850120818352809550505050505081815481106103d757fe5b9060005260206000200160009150915050548156fea265627a7a72315820a963e15c292e5eee89af3ab35f50f8dcf4b4453cd842bfdd5dc4685f96bddd0b64736f6c63430005100032",
  "source": "// SPDX-License-Identifier: UNLICENSED\npragma solidity >=0.4.22 <0.8.0;\n\ncontract TLSDIDEVRegistry {\n    mapping(address => mapping(string => uint256)) public owned;\n\n    mapping(string => uint256[]) public identities;\n\n    event ExpiryChanged(\n        address indexed owner,\n        uint64 expiry,\n        uint256 previousChange\n    );\n\n    /// @notice Sets TLS DID Contract expiry\n    /// @param _expiry The TLS DID Contract expiry\n    function setExpiry(string calldata _domain, uint64 _expiry) external {\n        emit ExpiryChanged(msg.sender, _expiry, owned[msg.sender][_domain]);\n    }\n}\n",
  "sourcePath": "/Users/kilian/Documents/tls-did-project/tls-did-registry/contracts/TLSDIDEVRegistry.sol",
  "compiler": {
    "name": "solc",
    "version": "0.5.16+commit.9c3226ce.Emscripten.clang"
  },
  "schemaVersion": "3.3.3",
  "updatedAt": "2021-03-11T12:14:44.025Z",
  "devdoc": {
    "methods": {
      "setExpiry(string,uint64)": {
        "params": {
          "_expiry": "The TLS DID Contract expiry"
        }
      }
    }
  },
  "userdoc": {
    "methods": {
      "setExpiry(string,uint64)": {
        "notice": "Sets TLS DID Contract expiry"
      }
    }
  }
}