{
  "contractName": "TLSDIDRegistry",
  "abi": [
    {
      "constant": false,
      "inputs": [
        {
          "internalType": "string",
          "name": "_id",
          "type": "string"
        },
        {
          "internalType": "address",
          "name": "_address",
          "type": "address"
        }
      ],
      "name": "registerContract",
      "outputs": [],
      "payable": false,
      "stateMutability": "nonpayable",
      "type": "function"
    },
    {
      "constant": true,
      "inputs": [
        {
          "internalType": "string",
          "name": "_id",
          "type": "string"
        }
      ],
      "name": "getContracts",
      "outputs": [
        {
          "internalType": "address[]",
          "name": "",
          "type": "address[]"
        }
      ],
      "payable": false,
      "stateMutability": "view",
      "type": "function"
    },
    {
      "constant": false,
      "inputs": [
        {
          "internalType": "string",
          "name": "_id",
          "type": "string"
        }
      ],
      "name": "removeContract",
      "outputs": [],
      "payable": false,
      "stateMutability": "nonpayable",
      "type": "function"
    }
  ],
  "bytecode": "0x608060405234801561001057600080fd5b50610585806100206000396000f3fe608060405234801561001057600080fd5b50600436106100415760003560e01c80637f3c2c281461004657806397623b58146100df578063f44962fc14610158575b600080fd5b6100dd6004803603604081101561005c57600080fd5b810190808035906020019064010000000081111561007957600080fd5b82018360208201111561008b57600080fd5b803590602001918460018302840111640100000000831117156100ad57600080fd5b9091929391929390803573ffffffffffffffffffffffffffffffffffffffff169060200190929190505050610226565b005b610156600480360360208110156100f557600080fd5b810190808035906020019064010000000081111561011257600080fd5b82018360208201111561012457600080fd5b8035906020019184600183028401116401000000008311171561014657600080fd5b9091929391929390505050610356565b005b6101cf6004803603602081101561016e57600080fd5b810190808035906020019064010000000081111561018b57600080fd5b82018360208201111561019d57600080fd5b803590602001918460018302840111640100000000831117156101bf57600080fd5b9091929391929390505050610497565b6040518080602001828103825283818151815260200191508051906020019060200280838360005b838110156102125780820151818401526020810190506101f7565b505050509050019250505060405180910390f35b60008084846040518083838082843780830192505050925050509081526020016040518091039020905060008160010160008473ffffffffffffffffffffffffffffffffffffffff1673ffffffffffffffffffffffffffffffffffffffff16815260200190815260200160002054141561035057806000018290806001815401808255809150509060018203906000526020600020016000909192909190916101000a81548173ffffffffffffffffffffffffffffffffffffffff021916908373ffffffffffffffffffffffffffffffffffffffff1602179055505080600001805490508160010160008473ffffffffffffffffffffffffffffffffffffffff1673ffffffffffffffffffffffffffffffffffffffff168152602001908152602001600020819055505b50505050565b60008083836040518083838082843780830192505050925050509081526020016040518091039020905060008160010160003373ffffffffffffffffffffffffffffffffffffffff1673ffffffffffffffffffffffffffffffffffffffff168152602001908152602001600020541115610492578060000160018260010160003373ffffffffffffffffffffffffffffffffffffffff1673ffffffffffffffffffffffffffffffffffffffff16815260200190815260200160002054038154811061041d57fe5b9060005260206000200160006101000a81549073ffffffffffffffffffffffffffffffffffffffff021916905560008160010160003373ffffffffffffffffffffffffffffffffffffffff1673ffffffffffffffffffffffffffffffffffffffff168152602001908152602001600020819055505b505050565b606060008383604051808383808284378083019250505092505050908152602001604051809103902060000180548060200260200160405190810160405280929190818152602001828054801561054357602002820191906000526020600020905b8160009054906101000a900473ffffffffffffffffffffffffffffffffffffffff1673ffffffffffffffffffffffffffffffffffffffff16815260200190600101908083116104f9575b505050505090509291505056fea265627a7a723158204099b15b31a3b64b812c5f7279f654b28b6c64565099c003e0a0e6ee96ddf1f664736f6c63430005100032",
  "source": "// SPDX-License-Identifier: UNLICENSED\npragma solidity >=0.4.22 <0.8.0;\n\ncontract TLSDIDRegistry {\n    /// contained is slightly hacky. We store the existance of an SC address\n    /// and the index of the SC address in AddressContainer.contained[SC address]\n    /// if it equals 0 no address is stored, if > an address is stored\n    /// and its index is i - 1\n    struct AddressContainer {\n        address[] addresses;\n        mapping(address => uint256) contained;\n    }\n\n    mapping(string => AddressContainer) private registry;\n\n    /// @notice Store mapping from DID to SC address\n    /// @dev The addresses are stored in an array to make sure an existing mapping can not be overwriten.\n    /// @param _id The TLS DID Method specific id for which a contract is stored\n    /// @param _address The address of the SC\n    function registerContract(string calldata _id, address _address) external {\n        AddressContainer storage container = registry[_id];\n        if (container.contained[_address] == 0) {\n            container.addresses.push(_address);\n            container.contained[_address] = container.addresses.length;\n        }\n    }\n\n    /// @notice Returns the SC addresses stored for a DID\n    /// @dev If no mapping is found returns empty array\n    /// @param _id The TLS DID Method specific id for which the contract addresses are requested\n    function getContracts(string calldata _id)\n        external\n        view\n        returns (address[] memory)\n    {\n        return registry[_id].addresses;\n    }\n\n    /// @notice Removes the SC addresses stored for a DID\n    /// @dev This is hacky. We store the existance of an SC address\n    /// and the index of the SC address in container.contained[SC address]\n    /// if it equals 0 no address is stored, if > an address is stored\n    /// and its index is i - 1\n    /// @param _id The TLS DID Method specific id\n    function removeContract(string calldata _id) external {\n        AddressContainer storage container = registry[_id];\n        if (container.contained[msg.sender] > 0) {\n            delete container.addresses[container.contained[msg.sender] - 1];\n            container.contained[msg.sender] = 0;\n        }\n    }\n}\n",
  "sourcePath": "/Users/kilian/Documents/tls-did-project/tls-did-registry/contracts/TLSDIDRegistry.sol",
  "compiler": {
    "name": "solc",
    "version": "0.5.16+commit.9c3226ce.Emscripten.clang"
  },
  "schemaVersion": "3.3.0",
  "updatedAt": "2021-01-11T16:12:56.161Z",
  "devdoc": {
    "methods": {
      "getContracts(string)": {
        "details": "If no mapping is found returns empty array",
        "params": {
          "_id": "The TLS DID Method specific id for which the contract addresses are requested"
        }
      },
      "registerContract(string,address)": {
        "details": "The addresses are stored in an array to make sure an existing mapping can not be overwriten.",
        "params": {
          "_address": "The address of the SC",
          "_id": "The TLS DID Method specific id for which a contract is stored"
        }
      },
      "removeContract(string)": {
        "details": "This is hacky. We store the existance of an SC address and the index of the SC address in container.contained[SC address] if it equals 0 no address is stored, if > an address is stored and its index is i - 1",
        "params": {
          "_id": "The TLS DID Method specific id"
        }
      }
    }
  },
  "userdoc": {
    "methods": {
      "getContracts(string)": {
        "notice": "Returns the SC addresses stored for a DID"
      },
      "registerContract(string,address)": {
        "notice": "Store mapping from DID to SC address"
      },
      "removeContract(string)": {
        "notice": "Removes the SC addresses stored for a DID"
      }
    }
  }
}