{
  "contractName": "TLSDID",
  "abi": [
    {
      "inputs": [],
      "payable": false,
      "stateMutability": "nonpayable",
      "type": "constructor"
    },
    {
      "constant": true,
      "inputs": [
        {
          "internalType": "uint256",
          "name": "",
          "type": "uint256"
        }
      ],
      "name": "attributes",
      "outputs": [
        {
          "internalType": "string",
          "name": "path",
          "type": "string"
        },
        {
          "internalType": "string",
          "name": "value",
          "type": "string"
        }
      ],
      "payable": false,
      "stateMutability": "view",
      "type": "function"
    },
    {
      "constant": true,
      "inputs": [
        {
          "internalType": "uint256",
          "name": "",
          "type": "uint256"
        }
      ],
      "name": "chains",
      "outputs": [
        {
          "internalType": "string",
          "name": "",
          "type": "string"
        }
      ],
      "payable": false,
      "stateMutability": "view",
      "type": "function"
    },
    {
      "constant": true,
      "inputs": [],
      "name": "domain",
      "outputs": [
        {
          "internalType": "string",
          "name": "",
          "type": "string"
        }
      ],
      "payable": false,
      "stateMutability": "view",
      "type": "function"
    },
    {
      "constant": true,
      "inputs": [],
      "name": "expiry",
      "outputs": [
        {
          "internalType": "uint64",
          "name": "",
          "type": "uint64"
        }
      ],
      "payable": false,
      "stateMutability": "view",
      "type": "function"
    },
    {
      "constant": true,
      "inputs": [],
      "name": "signature",
      "outputs": [
        {
          "internalType": "string",
          "name": "",
          "type": "string"
        }
      ],
      "payable": false,
      "stateMutability": "view",
      "type": "function"
    },
    {
      "constant": false,
      "inputs": [
        {
          "internalType": "string",
          "name": "_domain",
          "type": "string"
        }
      ],
      "name": "setDomain",
      "outputs": [],
      "payable": false,
      "stateMutability": "nonpayable",
      "type": "function"
    },
    {
      "constant": false,
      "inputs": [
        {
          "internalType": "uint64",
          "name": "_expiry",
          "type": "uint64"
        }
      ],
      "name": "setExpiry",
      "outputs": [],
      "payable": false,
      "stateMutability": "nonpayable",
      "type": "function"
    },
    {
      "constant": false,
      "inputs": [
        {
          "internalType": "string",
          "name": "_signature",
          "type": "string"
        }
      ],
      "name": "setSignature",
      "outputs": [],
      "payable": false,
      "stateMutability": "nonpayable",
      "type": "function"
    },
    {
      "constant": false,
      "inputs": [
        {
          "internalType": "string",
          "name": "_path",
          "type": "string"
        },
        {
          "internalType": "string",
          "name": "_value",
          "type": "string"
        }
      ],
      "name": "addAttribute",
      "outputs": [],
      "payable": false,
      "stateMutability": "nonpayable",
      "type": "function"
    },
    {
      "constant": true,
      "inputs": [],
      "name": "getAttributeCount",
      "outputs": [
        {
          "internalType": "uint256",
          "name": "",
          "type": "uint256"
        }
      ],
      "payable": false,
      "stateMutability": "view",
      "type": "function"
    },
    {
      "constant": true,
      "inputs": [
        {
          "internalType": "uint256",
          "name": "_index",
          "type": "uint256"
        }
      ],
      "name": "getAttribute",
      "outputs": [
        {
          "internalType": "string",
          "name": "",
          "type": "string"
        },
        {
          "internalType": "string",
          "name": "",
          "type": "string"
        }
      ],
      "payable": false,
      "stateMutability": "view",
      "type": "function"
    },
    {
      "constant": false,
      "inputs": [
        {
          "internalType": "string",
          "name": "_chain",
          "type": "string"
        }
      ],
      "name": "addChain",
      "outputs": [],
      "payable": false,
      "stateMutability": "nonpayable",
      "type": "function"
    },
    {
      "constant": true,
      "inputs": [],
      "name": "getChainCount",
      "outputs": [
        {
          "internalType": "uint256",
          "name": "",
          "type": "uint256"
        }
      ],
      "payable": false,
      "stateMutability": "view",
      "type": "function"
    },
    {
      "constant": true,
      "inputs": [
        {
          "internalType": "uint256",
          "name": "_index",
          "type": "uint256"
        }
      ],
      "name": "getChain",
      "outputs": [
        {
          "internalType": "string",
          "name": "",
          "type": "string"
        }
      ],
      "payable": false,
      "stateMutability": "view",
      "type": "function"
    }
  ],
  "bytecode": "0x6080604052336000806101000a81548173ffffffffffffffffffffffffffffffffffffffff021916908373ffffffffffffffffffffffffffffffffffffffff16021790555034801561005057600080fd5b50336000806101000a81548173ffffffffffffffffffffffffffffffffffffffff021916908373ffffffffffffffffffffffffffffffffffffffff16021790555061127a806100a06000396000f3fe608060405234801561001057600080fd5b50600436106100ea5760003560e01c8063c2fb26a61161008c578063d25d23bd11610066578063d25d23bd14610706578063e184c9be14610724578063e5eab09614610756578063fd114753146107cf576100ea565b8063c2fb26a614610552578063c93ead1b146105d5578063d05dcc6a146105f3576100ea565b806351ff4847116100c857806351ff484714610349578063550325b5146103cc578063a2eccb6f14610473578063b6791ad4146104ab576100ea565b80632782fb22146100ef5780632ba5683414610168578063493fe80f14610236575b600080fd5b6101666004803603602081101561010557600080fd5b810190808035906020019064010000000081111561012257600080fd5b82018360208201111561013457600080fd5b8035906020019184600183028401116401000000008311171561015657600080fd5b9091929391929390505050610848565b005b6102346004803603604081101561017e57600080fd5b810190808035906020019064010000000081111561019b57600080fd5b8201836020820111156101ad57600080fd5b803590602001918460018302840111640100000000831117156101cf57600080fd5b9091929391929390803590602001906401000000008111156101f057600080fd5b82018360208201111561020257600080fd5b8035906020019184600183028401116401000000008311171561022457600080fd5b90919293919293905050506108b7565b005b6102626004803603602081101561024c57600080fd5b8101908080359060200190929190505050610a1d565b604051808060200180602001838103835285818151815260200191508051906020019080838360005b838110156102a657808201518184015260208101905061028b565b50505050905090810190601f1680156102d35780820380516001836020036101000a031916815260200191505b50838103825284818151815260200191508051906020019080838360005b8381101561030c5780820151818401526020810190506102f1565b50505050905090810190601f1680156103395780820380516001836020036101000a031916815260200191505b5094505050505060405180910390f35b610351610ba3565b6040518080602001828103825283818151815260200191508051906020019080838360005b83811015610391578082015181840152602081019050610376565b50505050905090810190601f1680156103be5780820380516001836020036101000a031916815260200191505b509250505060405180910390f35b6103f8600480360360208110156103e257600080fd5b8101908080359060200190929190505050610c41565b6040518080602001828103825283818151815260200191508051906020019080838360005b8381101561043857808201518184015260208101905061041d565b50505050905090810190601f1680156104655780820380516001836020036101000a031916815260200191505b509250505060405180910390f35b6104a96004803603602081101561048957600080fd5b81019080803567ffffffffffffffff169060200190929190505050610cfa565b005b6104d7600480360360208110156104c157600080fd5b8101908080359060200190929190505050610d7f565b6040518080602001828103825283818151815260200191508051906020019080838360005b838110156105175780820151818401526020810190506104fc565b50505050905090810190601f1680156105445780820380516001836020036101000a031916815260200191505b509250505060405180910390f35b61055a610e38565b6040518080602001828103825283818151815260200191508051906020019080838360005b8381101561059a57808201518184015260208101905061057f565b50505050905090810190601f1680156105c75780820380516001836020036101000a031916815260200191505b509250505060405180910390f35b6105dd610ed6565b6040518082815260200191505060405180910390f35b61061f6004803603602081101561060957600080fd5b8101908080359060200190929190505050610ee3565b604051808060200180602001838103835285818151815260200191508051906020019080838360005b83811015610663578082015181840152602081019050610648565b50505050905090810190601f1680156106905780820380516001836020036101000a031916815260200191505b50838103825284818151815260200191508051906020019080838360005b838110156106c95780820151818401526020810190506106ae565b50505050905090810190601f1680156106f65780820380516001836020036101000a031916815260200191505b5094505050505060405180910390f35b61070e611044565b6040518082815260200191505060405180910390f35b61072c611051565b604051808267ffffffffffffffff1667ffffffffffffffff16815260200191505060405180910390f35b6107cd6004803603602081101561076c57600080fd5b810190808035906020019064010000000081111561078957600080fd5b82018360208201111561079b57600080fd5b803590602001918460018302840111640100000000831117156107bd57600080fd5b909192939192939050505061106b565b005b610846600480360360208110156107e557600080fd5b810190808035906020019064010000000081111561080257600080fd5b82018360208201111561081457600080fd5b8035906020019184600183028401116401000000008311171561083657600080fd5b90919293919293905050506110da565b005b6000809054906101000a900473ffffffffffffffffffffffffffffffffffffffff1673ffffffffffffffffffffffffffffffffffffffff163373ffffffffffffffffffffffffffffffffffffffff16146108a157600080fd5b8181600391906108b2929190611120565b505050565b6000809054906101000a900473ffffffffffffffffffffffffffffffffffffffff1673ffffffffffffffffffffffffffffffffffffffff163373ffffffffffffffffffffffffffffffffffffffff161461091057600080fd5b6004604051806040016040528086868080601f016020809104026020016040519081016040528093929190818152602001838380828437600081840152601f19601f82011690508083019250505050505050815260200184848080601f016020809104026020016040519081016040528093929190818152602001838380828437600081840152601f19601f820116905080830192505050505050508152509080600181540180825580915050906001820390600052602060002090600202016000909192909190915060008201518160000190805190602001906109f69291906111a0565b506020820151816001019080519060200190610a139291906111a0565b5050505050505050565b606080606060048481548110610a2f57fe5b90600052602060002090600202016000018054600181600116156101000203166002900480601f016020809104026020016040519081016040528092919081815260200182805460018160011615610100020316600290048015610ad45780601f10610aa957610100808354040283529160200191610ad4565b820191906000526020600020905b815481529060010190602001808311610ab757829003601f168201915b50505050509050606060048581548110610aea57fe5b90600052602060002090600202016001018054600181600116156101000203166002900480601f016020809104026020016040519081016040528092919081815260200182805460018160011615610100020316600290048015610b8f5780601f10610b6457610100808354040283529160200191610b8f565b820191906000526020600020905b815481529060010190602001808311610b7257829003601f168201915b505050505090508181935093505050915091565b60038054600181600116156101000203166002900480601f016020809104026020016040519081016040528092919081815260200182805460018160011615610100020316600290048015610c395780601f10610c0e57610100808354040283529160200191610c39565b820191906000526020600020905b815481529060010190602001808311610c1c57829003601f168201915b505050505081565b60058181548110610c4e57fe5b906000526020600020016000915090508054600181600116156101000203166002900480601f016020809104026020016040519081016040528092919081815260200182805460018160011615610100020316600290048015610cf25780601f10610cc757610100808354040283529160200191610cf2565b820191906000526020600020905b815481529060010190602001808311610cd557829003601f168201915b505050505081565b6000809054906101000a900473ffffffffffffffffffffffffffffffffffffffff1673ffffffffffffffffffffffffffffffffffffffff163373ffffffffffffffffffffffffffffffffffffffff1614610d5357600080fd5b80600260006101000a81548167ffffffffffffffff021916908367ffffffffffffffff16021790555050565b606060058281548110610d8e57fe5b906000526020600020018054600181600116156101000203166002900480601f016020809104026020016040519081016040528092919081815260200182805460018160011615610100020316600290048015610e2c5780601f10610e0157610100808354040283529160200191610e2c565b820191906000526020600020905b815481529060010190602001808311610e0f57829003601f168201915b50505050509050919050565b60018054600181600116156101000203166002900480601f016020809104026020016040519081016040528092919081815260200182805460018160011615610100020316600290048015610ece5780601f10610ea357610100808354040283529160200191610ece565b820191906000526020600020905b815481529060010190602001808311610eb157829003601f168201915b505050505081565b6000600480549050905090565b60048181548110610ef057fe5b9060005260206000209060020201600091509050806000018054600181600116156101000203166002900480601f016020809104026020016040519081016040528092919081815260200182805460018160011615610100020316600290048015610f9c5780601f10610f7157610100808354040283529160200191610f9c565b820191906000526020600020905b815481529060010190602001808311610f7f57829003601f168201915b505050505090806001018054600181600116156101000203166002900480601f01602080910402602001604051908101604052809291908181526020018280546001816001161561010002031660029004801561103a5780601f1061100f5761010080835404028352916020019161103a565b820191906000526020600020905b81548152906001019060200180831161101d57829003601f168201915b5050505050905082565b6000600580549050905090565b600260009054906101000a900467ffffffffffffffff1681565b6000809054906101000a900473ffffffffffffffffffffffffffffffffffffffff1673ffffffffffffffffffffffffffffffffffffffff163373ffffffffffffffffffffffffffffffffffffffff16146110c457600080fd5b8181600191906110d5929190611120565b505050565b600582829091806001815401808255809150509060018203906000526020600020016000909192939091929390919290919250919061111a929190611120565b50505050565b828054600181600116156101000203166002900490600052602060002090601f016020900481019282601f1061116157803560ff191683800117855561118f565b8280016001018555821561118f579182015b8281111561118e578235825591602001919060010190611173565b5b50905061119c9190611220565b5090565b828054600181600116156101000203166002900490600052602060002090601f016020900481019282601f106111e157805160ff191683800117855561120f565b8280016001018555821561120f579182015b8281111561120e5782518255916020019190600101906111f3565b5b50905061121c9190611220565b5090565b61124291905b8082111561123e576000816000905550600101611226565b5090565b9056fea265627a7a72315820ccadf7a6b7b4fdd42793a4472c11f8345e35c87fe413062616c7bc27a2a7805e64736f6c63430005100032",
  "source": "// SPDX-License-Identifier: UNLICENSED\npragma solidity >=0.4.22 <0.8.0;\n\ncontract TLSDID {\n    address private owner = msg.sender;\n    string public domain;\n    uint64 public expiry;\n    string public signature;\n\n    Attribute[] public attributes;\n\n    string[] public chains;\n\n    constructor() public {\n        owner = msg.sender;\n    }\n\n    struct Attribute {\n        string path;\n        string value;\n    }\n\n    modifier onlyOwner() {\n        require(msg.sender == owner);\n        _;\n    }\n\n    /// @notice Sets TLS DID domain\n    /// @param _domain The TLS DID domain\n    function setDomain(string calldata _domain) external onlyOwner {\n        domain = _domain;\n    }\n\n    /// @notice Sets TLS DID Contract expiry\n    /// @param _expiry The TLS DID Contract expiry\n    function setExpiry(uint64 _expiry) external onlyOwner {\n        expiry = _expiry;\n    }\n\n    /// @notice Sets TLS DID Contract signature\n    /// @param _signature The TLS DID Contract signature\n    function setSignature(string calldata _signature) external onlyOwner {\n        signature = _signature;\n    }\n\n    /// @notice Adds attribute to DID Document\n    /// @param _path The path to the attribute. Exp. parent/child or parent[]/child\n    /// @param _value The value of the attribute\n    function addAttribute(string calldata _path, string calldata _value)\n        external\n        onlyOwner\n    {\n        attributes.push(Attribute(_path, _value));\n    }\n\n    /// @notice Gets the count of attributes\n    function getAttributeCount() external view returns (uint256) {\n        return attributes.length;\n    }\n\n    /// @notice Gets attribute at index\n    /// @param _index The index of the attribute\n    function getAttribute(uint256 _index)\n        external\n        view\n        returns (string memory, string memory)\n    {\n        string memory path = attributes[_index].path;\n        string memory value = attributes[_index].value;\n        return (path, value);\n    }\n\n    /// @notice Store certificate chain\n    /// @dev The chains are stored in an array to allow access to old chains.\n    /// @param _chain The certificate chain to be stored\n    function addChain(string calldata _chain) external {\n        chains.push(_chain);\n    }\n\n    /// @notice Returns the number of certificate chains stored\n    function getChainCount() external view returns (uint256) {\n        return chains.length;\n    }\n\n    /// @notice Gets the certificate chain at index\n    /// @param _index The index of the certificate chain\n    function getChain(uint256 _index) external view returns (string memory) {\n        return chains[_index];\n    }\n}\n",
  "sourcePath": "/Users/kilian/Documents/tls-did-project/tls-did-registry/contracts/TLSDID.sol",
  "compiler": {
    "name": "solc",
    "version": "0.5.16+commit.9c3226ce.Emscripten.clang"
  },
  "schemaVersion": "3.3.0",
  "updatedAt": "2020-12-14T12:10:44.917Z",
  "devdoc": {
    "methods": {
      "addAttribute(string,string)": {
        "params": {
          "_path": "The path to the attribute. Exp. parent/child or parent[]/child",
          "_value": "The value of the attribute"
        }
      },
      "addChain(string)": {
        "details": "The chains are stored in an array to allow access to old chains.",
        "params": {
          "_chain": "The certificate chain to be stored"
        }
      },
      "getAttribute(uint256)": {
        "params": {
          "_index": "The index of the attribute"
        }
      },
      "getChain(uint256)": {
        "params": {
          "_index": "The index of the certificate chain"
        }
      },
      "setDomain(string)": {
        "params": {
          "_domain": "The TLS DID domain"
        }
      },
      "setExpiry(uint64)": {
        "params": {
          "_expiry": "The TLS DID Contract expiry"
        }
      },
      "setSignature(string)": {
        "params": {
          "_signature": "The TLS DID Contract signature"
        }
      }
    }
  },
  "userdoc": {
    "methods": {
      "addAttribute(string,string)": {
        "notice": "Adds attribute to DID Document"
      },
      "addChain(string)": {
        "notice": "Store certificate chain"
      },
      "getAttribute(uint256)": {
        "notice": "Gets attribute at index"
      },
      "getAttributeCount()": {
        "notice": "Gets the count of attributes"
      },
      "getChain(uint256)": {
        "notice": "Gets the certificate chain at index"
      },
      "getChainCount()": {
        "notice": "Returns the number of certificate chains stored"
      },
      "setDomain(string)": {
        "notice": "Sets TLS DID domain"
      },
      "setExpiry(uint64)": {
        "notice": "Sets TLS DID Contract expiry"
      },
      "setSignature(string)": {
        "notice": "Sets TLS DID Contract signature"
      }
    }
  }
}