{
  "contractName": "TLSDID",
  "abi": [
    {
      "inputs": [],
      "payable": false,
      "stateMutability": "nonpayable",
      "type": "constructor"
    },
    {
      "constant": true,
      "inputs": [
        {
          "internalType": "uint256",
          "name": "",
          "type": "uint256"
        }
      ],
      "name": "attributes",
      "outputs": [
        {
          "internalType": "string",
          "name": "name",
          "type": "string"
        },
        {
          "internalType": "string",
          "name": "value",
          "type": "string"
        }
      ],
      "payable": false,
      "stateMutability": "view",
      "type": "function"
    },
    {
      "constant": true,
      "inputs": [],
      "name": "domain",
      "outputs": [
        {
          "internalType": "string",
          "name": "",
          "type": "string"
        }
      ],
      "payable": false,
      "stateMutability": "view",
      "type": "function"
    },
    {
      "constant": true,
      "inputs": [],
      "name": "expiry",
      "outputs": [
        {
          "internalType": "uint64",
          "name": "",
          "type": "uint64"
        }
      ],
      "payable": false,
      "stateMutability": "view",
      "type": "function"
    },
    {
      "constant": true,
      "inputs": [],
      "name": "signature",
      "outputs": [
        {
          "internalType": "string",
          "name": "",
          "type": "string"
        }
      ],
      "payable": false,
      "stateMutability": "view",
      "type": "function"
    },
    {
      "constant": false,
      "inputs": [
        {
          "internalType": "string",
          "name": "_domain",
          "type": "string"
        }
      ],
      "name": "setDomain",
      "outputs": [],
      "payable": false,
      "stateMutability": "nonpayable",
      "type": "function"
    },
    {
      "constant": false,
      "inputs": [
        {
          "internalType": "uint64",
          "name": "_expiry",
          "type": "uint64"
        }
      ],
      "name": "setExpiry",
      "outputs": [],
      "payable": false,
      "stateMutability": "nonpayable",
      "type": "function"
    },
    {
      "constant": false,
      "inputs": [
        {
          "internalType": "string",
          "name": "_signature",
          "type": "string"
        }
      ],
      "name": "setSignature",
      "outputs": [],
      "payable": false,
      "stateMutability": "nonpayable",
      "type": "function"
    },
    {
      "constant": false,
      "inputs": [
        {
          "internalType": "string",
          "name": "_name",
          "type": "string"
        },
        {
          "internalType": "string",
          "name": "_value",
          "type": "string"
        }
      ],
      "name": "addAttribute",
      "outputs": [],
      "payable": false,
      "stateMutability": "nonpayable",
      "type": "function"
    },
    {
      "constant": true,
      "inputs": [],
      "name": "getAttributes",
      "outputs": [
        {
          "components": [
            {
              "internalType": "string",
              "name": "name",
              "type": "string"
            },
            {
              "internalType": "string",
              "name": "value",
              "type": "string"
            }
          ],
          "internalType": "struct TLSDID.Attribute[]",
          "name": "",
          "type": "tuple[]"
        }
      ],
      "payable": false,
      "stateMutability": "view",
      "type": "function"
    }
  ],
  "bytecode": "0x6080604052336000806101000a81548173ffffffffffffffffffffffffffffffffffffffff021916908373ffffffffffffffffffffffffffffffffffffffff16021790555034801561005057600080fd5b50336000806101000a81548173ffffffffffffffffffffffffffffffffffffffff021916908373ffffffffffffffffffffffffffffffffffffffff160217905550610e96806100a06000396000f3fe608060405234801561001057600080fd5b50600436106100935760003560e01c8063a2eccb6f11610066578063a2eccb6f1461010c578063c2fb26a614610128578063d05dcc6a14610146578063e184c9be14610177578063e5eab0961461019557610093565b8063152583de146100985780632782fb22146100b65780632ba56834146100d257806351ff4847146100ee575b600080fd5b6100a06101b1565b6040516100ad9190610cc7565b60405180910390f35b6100d060048036036100cb9190810190610a6d565b610354565b005b6100ec60048036036100e79190810190610ab2565b6103c3565b005b6100f6610529565b6040516101039190610ce9565b60405180910390f35b61012660048036036101219190810190610b50565b6105c7565b005b61013061064c565b60405161013d9190610ce9565b60405180910390f35b610160600480360361015b9190810190610b27565b6106ea565b60405161016e929190610d0b565b60405180910390f35b61017f61084b565b60405161018c9190610d42565b60405180910390f35b6101af60048036036101aa9190810190610a6d565b610865565b005b60606004805480602002602001604051908101604052809291908181526020016000905b8282101561034b5783829060005260206000209060020201604051806040016040529081600082018054600181600116156101000203166002900480601f0160208091040260200160405190810160405280929190818152602001828054600181600116156101000203166002900480156102915780601f1061026657610100808354040283529160200191610291565b820191906000526020600020905b81548152906001019060200180831161027457829003601f168201915b50505050508152602001600182018054600181600116156101000203166002900480601f0160208091040260200160405190810160405280929190818152602001828054600181600116156101000203166002900480156103335780601f1061030857610100808354040283529160200191610333565b820191906000526020600020905b81548152906001019060200180831161031657829003601f168201915b505050505081525050815260200190600101906101d5565b50505050905090565b6000809054906101000a900473ffffffffffffffffffffffffffffffffffffffff1673ffffffffffffffffffffffffffffffffffffffff163373ffffffffffffffffffffffffffffffffffffffff16146103ad57600080fd5b8181600391906103be9291906108d4565b505050565b6000809054906101000a900473ffffffffffffffffffffffffffffffffffffffff1673ffffffffffffffffffffffffffffffffffffffff163373ffffffffffffffffffffffffffffffffffffffff161461041c57600080fd5b6004604051806040016040528086868080601f016020809104026020016040519081016040528093929190818152602001838380828437600081840152601f19601f82011690508083019250505050505050815260200184848080601f016020809104026020016040519081016040528093929190818152602001838380828437600081840152601f19601f82011690508083019250505050505050815250908060018154018082558091505090600182039060005260206000209060020201600090919290919091506000820151816000019080519060200190610502929190610954565b50602082015181600101908051906020019061051f929190610954565b5050505050505050565b60038054600181600116156101000203166002900480601f0160208091040260200160405190810160405280929190818152602001828054600181600116156101000203166002900480156105bf5780601f10610594576101008083540402835291602001916105bf565b820191906000526020600020905b8154815290600101906020018083116105a257829003601f168201915b505050505081565b6000809054906101000a900473ffffffffffffffffffffffffffffffffffffffff1673ffffffffffffffffffffffffffffffffffffffff163373ffffffffffffffffffffffffffffffffffffffff161461062057600080fd5b80600260006101000a81548167ffffffffffffffff021916908367ffffffffffffffff16021790555050565b60018054600181600116156101000203166002900480601f0160208091040260200160405190810160405280929190818152602001828054600181600116156101000203166002900480156106e25780601f106106b7576101008083540402835291602001916106e2565b820191906000526020600020905b8154815290600101906020018083116106c557829003601f168201915b505050505081565b600481815481106106f757fe5b9060005260206000209060020201600091509050806000018054600181600116156101000203166002900480601f0160208091040260200160405190810160405280929190818152602001828054600181600116156101000203166002900480156107a35780601f10610778576101008083540402835291602001916107a3565b820191906000526020600020905b81548152906001019060200180831161078657829003601f168201915b505050505090806001018054600181600116156101000203166002900480601f0160208091040260200160405190810160405280929190818152602001828054600181600116156101000203166002900480156108415780601f1061081657610100808354040283529160200191610841565b820191906000526020600020905b81548152906001019060200180831161082457829003601f168201915b5050505050905082565b600260009054906101000a900467ffffffffffffffff1681565b6000809054906101000a900473ffffffffffffffffffffffffffffffffffffffff1673ffffffffffffffffffffffffffffffffffffffff163373ffffffffffffffffffffffffffffffffffffffff16146108be57600080fd5b8181600191906108cf9291906108d4565b505050565b828054600181600116156101000203166002900490600052602060002090601f016020900481019282601f1061091557803560ff1916838001178555610943565b82800160010185558215610943579182015b82811115610942578235825591602001919060010190610927565b5b50905061095091906109d4565b5090565b828054600181600116156101000203166002900490600052602060002090601f016020900481019282601f1061099557805160ff19168380011785556109c3565b828001600101855582156109c3579182015b828111156109c25782518255916020019190600101906109a7565b5b5090506109d091906109d4565b5090565b6109f691905b808211156109f25760008160009055506001016109da565b5090565b90565b60008083601f840112610a0b57600080fd5b8235905067ffffffffffffffff811115610a2457600080fd5b602083019150836001820283011115610a3c57600080fd5b9250929050565b600081359050610a5281610e25565b92915050565b600081359050610a6781610e3c565b92915050565b60008060208385031215610a8057600080fd5b600083013567ffffffffffffffff811115610a9a57600080fd5b610aa6858286016109f9565b92509250509250929050565b60008060008060408587031215610ac857600080fd5b600085013567ffffffffffffffff811115610ae257600080fd5b610aee878288016109f9565b9450945050602085013567ffffffffffffffff811115610b0d57600080fd5b610b19878288016109f9565b925092505092959194509250565b600060208284031215610b3957600080fd5b6000610b4784828501610a43565b91505092915050565b600060208284031215610b6257600080fd5b6000610b7084828501610a58565b91505092915050565b6000610b858383610c74565b905092915050565b6000610b9882610d6d565b610ba28185610d90565b935083602082028501610bb485610d5d565b8060005b85811015610bf05784840389528151610bd18582610b79565b9450610bdc83610d83565b925060208a01995050600181019050610bb8565b50829750879550505050505092915050565b6000610c0d82610d78565b610c178185610da1565b9350610c27818560208601610de1565b610c3081610e14565b840191505092915050565b6000610c4682610d78565b610c508185610db2565b9350610c60818560208601610de1565b610c6981610e14565b840191505092915050565b60006040830160008301518482036000860152610c918282610c02565b91505060208301518482036020860152610cab8282610c02565b9150508091505092915050565b610cc181610dcd565b82525050565b60006020820190508181036000830152610ce18184610b8d565b905092915050565b60006020820190508181036000830152610d038184610c3b565b905092915050565b60006040820190508181036000830152610d258185610c3b565b90508181036020830152610d398184610c3b565b90509392505050565b6000602082019050610d576000830184610cb8565b92915050565b6000819050602082019050919050565b600081519050919050565b600081519050919050565b6000602082019050919050565b600082825260208201905092915050565b600082825260208201905092915050565b600082825260208201905092915050565b6000819050919050565b600067ffffffffffffffff82169050919050565b60005b83811015610dff578082015181840152602081019050610de4565b83811115610e0e576000848401525b50505050565b6000601f19601f8301169050919050565b610e2e81610dc3565b8114610e3957600080fd5b50565b610e4581610dcd565b8114610e5057600080fd5b5056fea365627a7a723158207934db196f7bae4add3756081a674d85282d3c30e44d71f8931f99dde5e2218e6c6578706572696d656e74616cf564736f6c63430005100040",
  "source": "// SPDX-License-Identifier: UNLICENSED\npragma solidity >=0.4.22 <0.8.0;\npragma experimental ABIEncoderV2;\n\ncontract TLSDID {\n    address private owner = msg.sender;\n    string public domain;\n    uint64 public expiry;\n    string public signature;\n\n    Attribute[] public attributes;\n\n    constructor() public {\n        owner = msg.sender;\n    }\n\n    struct Attribute {\n        string name;\n        string value;\n    }\n\n    modifier onlyOwner() {\n        require(msg.sender == owner);\n        _;\n    }\n\n    function setDomain(string calldata _domain) external onlyOwner {\n        domain = _domain;\n    }\n\n    function setExpiry(uint64 _expiry) external onlyOwner {\n        expiry = _expiry;\n    }\n\n    function setSignature(string calldata _signature) external onlyOwner {\n        signature = _signature;\n    }\n\n    function addAttribute(string calldata _name, string calldata _value)\n        external\n        onlyOwner\n    {\n        attributes.push(Attribute(_name, _value));\n    }\n\n    function getAttributes() external view returns (Attribute[] memory) {\n        return attributes;\n    }\n}\n",
  "sourcePath": "/Users/kilian/Documents/tls-did-project/tls-did-registry/contracts/TLSDID.sol",
  "compiler": {
    "name": "solc",
    "version": "0.5.16+commit.9c3226ce.Emscripten.clang"
  },
  "schemaVersion": "3.3.0",
  "updatedAt": "2020-10-15T13:28:02.469Z",
  "devdoc": {
    "methods": {}
  },
  "userdoc": {
    "methods": {}
  }
}