{
  "contractName": "TLSDIDCertRegistry",
  "abi": [
    {
      "constant": false,
      "inputs": [
        {
          "internalType": "string",
          "name": "_domain",
          "type": "string"
        },
        {
          "internalType": "string",
          "name": "_chain",
          "type": "string"
        }
      ],
      "name": "addChain",
      "outputs": [],
      "payable": false,
      "stateMutability": "nonpayable",
      "type": "function"
    },
    {
      "constant": true,
      "inputs": [
        {
          "internalType": "string",
          "name": "_domain",
          "type": "string"
        }
      ],
      "name": "getChainCount",
      "outputs": [
        {
          "internalType": "uint256",
          "name": "",
          "type": "uint256"
        }
      ],
      "payable": false,
      "stateMutability": "view",
      "type": "function"
    },
    {
      "constant": true,
      "inputs": [
        {
          "internalType": "string",
          "name": "_domain",
          "type": "string"
        },
        {
          "internalType": "uint256",
          "name": "_index",
          "type": "uint256"
        }
      ],
      "name": "getChain",
      "outputs": [
        {
          "internalType": "string",
          "name": "",
          "type": "string"
        }
      ],
      "payable": false,
      "stateMutability": "view",
      "type": "function"
    }
  ],
  "bytecode": "0x608060405234801561001057600080fd5b50610542806100206000396000f3fe608060405234801561001057600080fd5b50600436106100415760003560e01c80630fbba50a14610046578063808f3914146100d3578063a9f940c3146101cf575b600080fd5b6100bd6004803603602081101561005c57600080fd5b810190808035906020019064010000000081111561007957600080fd5b82018360208201111561008b57600080fd5b803590602001918460018302840111640100000000831117156100ad57600080fd5b909192939192939050505061029d565b6040518082815260200191505060405180910390f35b610154600480360360408110156100e957600080fd5b810190808035906020019064010000000081111561010657600080fd5b82018360208201111561011857600080fd5b8035906020019184600183028401116401000000008311171561013a57600080fd5b9091929391929390803590602001909291905050506102d1565b6040518080602001828103825283818151815260200191508051906020019080838360005b83811015610194578082015181840152602081019050610179565b50505050905090810190601f1680156101c15780820380516001836020036101000a031916815260200191505b509250505060405180910390f35b61029b600480360360408110156101e557600080fd5b810190808035906020019064010000000081111561020257600080fd5b82018360208201111561021457600080fd5b8035906020019184600183028401116401000000008311171561023657600080fd5b90919293919293908035906020019064010000000081111561025757600080fd5b82018360208201111561026957600080fd5b8035906020019184600183028401116401000000008311171561028b57600080fd5b90919293919293905050506103fb565b005b6000808383604051808383808284378083019250505092505050908152602001604051809103902080549050905092915050565b606080600085856040518083838082843780830192505050925050509081526020016040518091039020805480602002602001604051908101604052809291908181526020016000905b828210156103d7578382906000526020600020018054600181600116156101000203166002900480601f0160208091040260200160405190810160405280929190818152602001828054600181600116156101000203166002900480156103c35780601f10610398576101008083540402835291602001916103c3565b820191906000526020600020905b8154815290600101906020018083116103a657829003601f168201915b50505050508152602001906001019061031b565b5050505090508083815181106103e957fe5b60200260200101519150509392505050565b600084846040518083838082843780830192505050925050509081526020016040518091039020828290918060018154018082558091505090600182039060005260206000200160009091929390919293909192909192509190610460929190610468565b505050505050565b828054600181600116156101000203166002900490600052602060002090601f016020900481019282601f106104a957803560ff19168380011785556104d7565b828001600101855582156104d7579182015b828111156104d65782358255916020019190600101906104bb565b5b5090506104e491906104e8565b5090565b61050a91905b808211156105065760008160009055506001016104ee565b5090565b9056fea265627a7a72315820f33e051cef46ad2e17ddd19f5b66249cfe796b3cf4fd6cb45ceea13ebe256adb64736f6c63430005100032",
  "source": "// SPDX-License-Identifier: UNLICENSED\npragma solidity >=0.4.22 <0.8.0;\n\ncontract TLSDIDCertRegistry {\n    // Maps domain to aggregated certificate chain\n    mapping(string => string[]) private registry;\n\n    /// @notice Store mapping from domain to aggregated certificate chain\n    /// @dev The addresses are stored in an array to make sure an existing mapping can not be overwriten.\n    /// @param _domain The domain mapping to the certificates\n    /// @param _chain The aggregated certificate chain to be stored\n    function addChain(string calldata _domain, string calldata _chain)\n        external\n    {\n        registry[_domain].push(_chain);\n    }\n\n    /// @notice Returns the number of aggregated certificate chains stored for the domain\n    /// @param _domain The domain mapping to the certificates\n    function getChainCount(string calldata _domain)\n        external\n        view\n        returns (uint256)\n    {\n        return registry[_domain].length;\n    }\n\n    /// @notice Gets the aggregated certificates at index\n    /// @param _domain The domain mapping to the certificates\n    /// @param _index The index of the aggregated certificates\n    function getChain(string calldata _domain, uint256 _index)\n        external\n        view\n        returns (string memory)\n    {\n        string[] memory chains = registry[_domain];\n        return chains[_index];\n    }\n}\n",
  "sourcePath": "/Users/kilian/Documents/tls-did-project/tls-did-registry/contracts/TLSDIDCertRegistry.sol",
  "compiler": {
    "name": "solc",
    "version": "0.5.16+commit.9c3226ce.Emscripten.clang"
  },
  "schemaVersion": "3.3.0",
  "updatedAt": "2020-11-27T14:33:38.053Z",
  "networkType": "ethereum",
  "devdoc": {
    "methods": {
      "addChain(string,string)": {
        "details": "The addresses are stored in an array to make sure an existing mapping can not be overwriten.",
        "params": {
          "_chain": "The aggregated certificate chain to be stored",
          "_domain": "The domain mapping to the certificates"
        }
      },
      "getChain(string,uint256)": {
        "params": {
          "_domain": "The domain mapping to the certificates",
          "_index": "The index of the aggregated certificates"
        }
      },
      "getChainCount(string)": {
        "params": {
          "_domain": "The domain mapping to the certificates"
        }
      }
    }
  },
  "userdoc": {
    "methods": {
      "addChain(string,string)": {
        "notice": "Store mapping from domain to aggregated certificate chain"
      },
      "getChain(string,uint256)": {
        "notice": "Gets the aggregated certificates at index"
      },
      "getChainCount(string)": {
        "notice": "Returns the number of aggregated certificate chains stored for the domain"
      }
    }
  }
}