{
  "contractName": "TLSDIDRegistry",
  "abi": [
    {
      "constant": false,
      "inputs": [
        {
          "internalType": "string",
          "name": "_id",
          "type": "string"
        },
        {
          "internalType": "address",
          "name": "_address",
          "type": "address"
        }
      ],
      "name": "registerContract",
      "outputs": [],
      "payable": false,
      "stateMutability": "nonpayable",
      "type": "function"
    },
    {
      "constant": true,
      "inputs": [
        {
          "internalType": "string",
          "name": "_id",
          "type": "string"
        }
      ],
      "name": "getContracts",
      "outputs": [
        {
          "internalType": "address[]",
          "name": "",
          "type": "address[]"
        }
      ],
      "payable": false,
      "stateMutability": "view",
      "type": "function"
    }
  ],
  "bytecode": "0x608060405234801561001057600080fd5b506103d6806100206000396000f3fe608060405234801561001057600080fd5b50600436106100365760003560e01c80637f3c2c281461003b578063f44962fc146100d4575b600080fd5b6100d26004803603604081101561005157600080fd5b810190808035906020019064010000000081111561006e57600080fd5b82018360208201111561008057600080fd5b803590602001918460018302840111640100000000831117156100a257600080fd5b9091929391929390803573ffffffffffffffffffffffffffffffffffffffff1690602001909291905050506101a2565b005b61014b600480360360208110156100ea57600080fd5b810190808035906020019064010000000081111561010757600080fd5b82018360208201111561011957600080fd5b8035906020019184600183028401116401000000008311171561013b57600080fd5b90919293919293905050506102e8565b6040518080602001828103825283818151815260200191508051906020019060200280838360005b8381101561018e578082015181840152602081019050610173565b505050509050019250505060405180910390f35b6000808484604051808383808284378083019250505092505050908152602001604051809103902090508060010160008373ffffffffffffffffffffffffffffffffffffffff1673ffffffffffffffffffffffffffffffffffffffff16815260200190815260200160002060009054906101000a900460ff166102e257806000018290806001815401808255809150509060018203906000526020600020016000909192909190916101000a81548173ffffffffffffffffffffffffffffffffffffffff021916908373ffffffffffffffffffffffffffffffffffffffff1602179055505060018160010160008473ffffffffffffffffffffffffffffffffffffffff1673ffffffffffffffffffffffffffffffffffffffff16815260200190815260200160002060006101000a81548160ff0219169083151502179055505b50505050565b606060008383604051808383808284378083019250505092505050908152602001604051809103902060000180548060200260200160405190810160405280929190818152602001828054801561039457602002820191906000526020600020905b8160009054906101000a900473ffffffffffffffffffffffffffffffffffffffff1673ffffffffffffffffffffffffffffffffffffffff168152602001906001019080831161034a575b505050505090509291505056fea265627a7a72315820884a7ba7c9769b7f2fdd88783e888e1e5b32be6327c71ae4bb2c0e084164ef1a64736f6c63430005100032",
  "source": "// SPDX-License-Identifier: UNLICENSED\npragma solidity >=0.4.22 <0.8.0;\n\ncontract TLSDIDRegistry {\n    //TODO rename | evaluate if we solve this with events\n    struct AddressContainer {\n        address[] addresses;\n        mapping(address => bool) contained;\n    }\n\n    mapping(string => AddressContainer) private registry;\n\n    /// @notice Store mapping from DID to SC address\n    /// @dev The addresses are stored in an array to make sure an existing mapping can not be overwriten.\n    /// @param _id The TLS DID Method specific id for which a contract is stored\n    /// @param _address The address of the SC\n    function registerContract(string calldata _id, address _address) external {\n        AddressContainer storage container = registry[_id];\n        if (!container.contained[_address]) {\n            container.addresses.push(_address);\n            container.contained[_address] = true;\n        }\n    }\n\n    /// @notice Returns the SC addresses stored for a DID\n    /// @dev If no mapping is found returns empty array\n    /// @param _id The TLS DID Method specific id for which the contract addresses are requested\n    function getContracts(string calldata _id)\n        external\n        view\n        returns (address[] memory)\n    {\n        return registry[_id].addresses;\n    }\n}\n",
  "sourcePath": "/Users/kilian/Documents/tls-did-project/tls-did-registry/contracts/TLSDIDRegistry.sol",
  "compiler": {
    "name": "solc",
    "version": "0.5.16+commit.9c3226ce.Emscripten.clang"
  },
  "schemaVersion": "3.3.0",
  "updatedAt": "2020-11-20T11:19:56.352Z",
  "devdoc": {
    "methods": {
      "getContracts(string)": {
        "details": "If no mapping is found returns empty array",
        "params": {
          "_id": "The TLS DID Method specific id for which the contract addresses are requested"
        }
      },
      "registerContract(string,address)": {
        "details": "The addresses are stored in an array to make sure an existing mapping can not be overwriten.",
        "params": {
          "_address": "The address of the SC",
          "_id": "The TLS DID Method specific id for which a contract is stored"
        }
      }
    }
  },
  "userdoc": {
    "methods": {
      "getContracts(string)": {
        "notice": "Returns the SC addresses stored for a DID"
      },
      "registerContract(string,address)": {
        "notice": "Store mapping from DID to SC address"
      }
    }
  }
}