{
  "contractName": "TLSDID",
  "abi": [
    {
      "inputs": [],
      "payable": false,
      "stateMutability": "nonpayable",
      "type": "constructor"
    },
    {
      "constant": true,
      "inputs": [
        {
          "internalType": "uint256",
          "name": "",
          "type": "uint256"
        }
      ],
      "name": "attributes",
      "outputs": [
        {
          "internalType": "string",
          "name": "path",
          "type": "string"
        },
        {
          "internalType": "string",
          "name": "value",
          "type": "string"
        }
      ],
      "payable": false,
      "stateMutability": "view",
      "type": "function"
    },
    {
      "constant": true,
      "inputs": [
        {
          "internalType": "uint256",
          "name": "",
          "type": "uint256"
        }
      ],
      "name": "chains",
      "outputs": [
        {
          "internalType": "string",
          "name": "",
          "type": "string"
        }
      ],
      "payable": false,
      "stateMutability": "view",
      "type": "function"
    },
    {
      "constant": true,
      "inputs": [],
      "name": "domain",
      "outputs": [
        {
          "internalType": "string",
          "name": "",
          "type": "string"
        }
      ],
      "payable": false,
      "stateMutability": "view",
      "type": "function"
    },
    {
      "constant": true,
      "inputs": [],
      "name": "expiry",
      "outputs": [
        {
          "internalType": "uint64",
          "name": "",
          "type": "uint64"
        }
      ],
      "payable": false,
      "stateMutability": "view",
      "type": "function"
    },
    {
      "constant": true,
      "inputs": [],
      "name": "signature",
      "outputs": [
        {
          "internalType": "string",
          "name": "",
          "type": "string"
        }
      ],
      "payable": false,
      "stateMutability": "view",
      "type": "function"
    },
    {
      "constant": false,
      "inputs": [
        {
          "internalType": "string",
          "name": "_domain",
          "type": "string"
        }
      ],
      "name": "setDomain",
      "outputs": [],
      "payable": false,
      "stateMutability": "nonpayable",
      "type": "function"
    },
    {
      "constant": false,
      "inputs": [
        {
          "internalType": "uint64",
          "name": "_expiry",
          "type": "uint64"
        }
      ],
      "name": "setExpiry",
      "outputs": [],
      "payable": false,
      "stateMutability": "nonpayable",
      "type": "function"
    },
    {
      "constant": false,
      "inputs": [
        {
          "internalType": "string",
          "name": "_signature",
          "type": "string"
        }
      ],
      "name": "setSignature",
      "outputs": [],
      "payable": false,
      "stateMutability": "nonpayable",
      "type": "function"
    },
    {
      "constant": false,
      "inputs": [
        {
          "internalType": "string",
          "name": "_path",
          "type": "string"
        },
        {
          "internalType": "string",
          "name": "_value",
          "type": "string"
        }
      ],
      "name": "addAttribute",
      "outputs": [],
      "payable": false,
      "stateMutability": "nonpayable",
      "type": "function"
    },
    {
      "constant": true,
      "inputs": [],
      "name": "getAttributeCount",
      "outputs": [
        {
          "internalType": "uint256",
          "name": "",
          "type": "uint256"
        }
      ],
      "payable": false,
      "stateMutability": "view",
      "type": "function"
    },
    {
      "constant": true,
      "inputs": [
        {
          "internalType": "uint256",
          "name": "_index",
          "type": "uint256"
        }
      ],
      "name": "getAttribute",
      "outputs": [
        {
          "internalType": "string",
          "name": "",
          "type": "string"
        },
        {
          "internalType": "string",
          "name": "",
          "type": "string"
        }
      ],
      "payable": false,
      "stateMutability": "view",
      "type": "function"
    },
    {
      "constant": false,
      "inputs": [
        {
          "internalType": "string",
          "name": "_chain",
          "type": "string"
        }
      ],
      "name": "addChain",
      "outputs": [],
      "payable": false,
      "stateMutability": "nonpayable",
      "type": "function"
    },
    {
      "constant": true,
      "inputs": [],
      "name": "getChainCount",
      "outputs": [
        {
          "internalType": "uint256",
          "name": "",
          "type": "uint256"
        }
      ],
      "payable": false,
      "stateMutability": "view",
      "type": "function"
    },
    {
      "constant": true,
      "inputs": [
        {
          "internalType": "uint256",
          "name": "_index",
          "type": "uint256"
        }
      ],
      "name": "getChain",
      "outputs": [
        {
          "internalType": "string",
          "name": "",
          "type": "string"
        }
      ],
      "payable": false,
      "stateMutability": "view",
      "type": "function"
    },
    {
      "constant": false,
      "inputs": [
        {
          "internalType": "address",
          "name": "_RegistryAddress",
          "type": "address"
        }
      ],
      "name": "remove",
      "outputs": [],
      "payable": false,
      "stateMutability": "nonpayable",
      "type": "function"
    }
  ],
  "bytecode": "0x6080604052336000806101000a81548173ffffffffffffffffffffffffffffffffffffffff021916908373ffffffffffffffffffffffffffffffffffffffff16021790555034801561005057600080fd5b50336000806101000a81548173ffffffffffffffffffffffffffffffffffffffff021916908373ffffffffffffffffffffffffffffffffffffffff16021790555061144f806100a06000396000f3fe608060405234801561001057600080fd5b50600436106100f55760003560e01c8063b6791ad411610097578063d25d23bd11610066578063d25d23bd14610755578063e184c9be14610773578063e5eab096146107a5578063fd1147531461081e576100f5565b8063b6791ad4146104fa578063c2fb26a6146105a1578063c93ead1b14610624578063d05dcc6a14610642576100f5565b8063493fe80f116100d3578063493fe80f1461028557806351ff484714610398578063550325b51461041b578063a2eccb6f146104c2576100f5565b80632782fb22146100fa57806329092d0e146101735780632ba56834146101b7575b600080fd5b6101716004803603602081101561011057600080fd5b810190808035906020019064010000000081111561012d57600080fd5b82018360208201111561013f57600080fd5b8035906020019184600183028401116401000000008311171561016157600080fd5b9091929391929390505050610897565b005b6101b56004803603602081101561018957600080fd5b81019080803573ffffffffffffffffffffffffffffffffffffffff169060200190929190505050610906565b005b610283600480360360408110156101cd57600080fd5b81019080803590602001906401000000008111156101ea57600080fd5b8201836020820111156101fc57600080fd5b8035906020019184600183028401116401000000008311171561021e57600080fd5b90919293919293908035906020019064010000000081111561023f57600080fd5b82018360208201111561025157600080fd5b8035906020019184600183028401116401000000008311171561027357600080fd5b9091929391929390505050610a8c565b005b6102b16004803603602081101561029b57600080fd5b8101908080359060200190929190505050610bf2565b604051808060200180602001838103835285818151815260200191508051906020019080838360005b838110156102f55780820151818401526020810190506102da565b50505050905090810190601f1680156103225780820380516001836020036101000a031916815260200191505b50838103825284818151815260200191508051906020019080838360005b8381101561035b578082015181840152602081019050610340565b50505050905090810190601f1680156103885780820380516001836020036101000a031916815260200191505b5094505050505060405180910390f35b6103a0610d78565b6040518080602001828103825283818151815260200191508051906020019080838360005b838110156103e05780820151818401526020810190506103c5565b50505050905090810190601f16801561040d5780820380516001836020036101000a031916815260200191505b509250505060405180910390f35b6104476004803603602081101561043157600080fd5b8101908080359060200190929190505050610e16565b6040518080602001828103825283818151815260200191508051906020019080838360005b8381101561048757808201518184015260208101905061046c565b50505050905090810190601f1680156104b45780820380516001836020036101000a031916815260200191505b509250505060405180910390f35b6104f8600480360360208110156104d857600080fd5b81019080803567ffffffffffffffff169060200190929190505050610ecf565b005b6105266004803603602081101561051057600080fd5b8101908080359060200190929190505050610f54565b6040518080602001828103825283818151815260200191508051906020019080838360005b8381101561056657808201518184015260208101905061054b565b50505050905090810190601f1680156105935780820380516001836020036101000a031916815260200191505b509250505060405180910390f35b6105a961100d565b6040518080602001828103825283818151815260200191508051906020019080838360005b838110156105e95780820151818401526020810190506105ce565b50505050905090810190601f1680156106165780820380516001836020036101000a031916815260200191505b509250505060405180910390f35b61062c6110ab565b6040518082815260200191505060405180910390f35b61066e6004803603602081101561065857600080fd5b81019080803590602001909291905050506110b8565b604051808060200180602001838103835285818151815260200191508051906020019080838360005b838110156106b2578082015181840152602081019050610697565b50505050905090810190601f1680156106df5780820380516001836020036101000a031916815260200191505b50838103825284818151815260200191508051906020019080838360005b838110156107185780820151818401526020810190506106fd565b50505050905090810190601f1680156107455780820380516001836020036101000a031916815260200191505b5094505050505060405180910390f35b61075d611219565b6040518082815260200191505060405180910390f35b61077b611226565b604051808267ffffffffffffffff1667ffffffffffffffff16815260200191505060405180910390f35b61081c600480360360208110156107bb57600080fd5b81019080803590602001906401000000008111156107d857600080fd5b8201836020820111156107ea57600080fd5b8035906020019184600183028401116401000000008311171561080c57600080fd5b9091929391929390505050611240565b005b6108956004803603602081101561083457600080fd5b810190808035906020019064010000000081111561085157600080fd5b82018360208201111561086357600080fd5b8035906020019184600183028401116401000000008311171561088557600080fd5b90919293919293905050506112af565b005b6000809054906101000a900473ffffffffffffffffffffffffffffffffffffffff1673ffffffffffffffffffffffffffffffffffffffff163373ffffffffffffffffffffffffffffffffffffffff16146108f057600080fd5b8181600391906109019291906112f5565b505050565b6000809054906101000a900473ffffffffffffffffffffffffffffffffffffffff1673ffffffffffffffffffffffffffffffffffffffff163373ffffffffffffffffffffffffffffffffffffffff161461095f57600080fd5b60008190508073ffffffffffffffffffffffffffffffffffffffff166397623b5860016040518263ffffffff1660e01b81526004018080602001828103825283818154600181600116156101000203166002900481526020019150805460018160011615610100020316600290048015610a1a5780601f106109ef57610100808354040283529160200191610a1a565b820191906000526020600020905b8154815290600101906020018083116109fd57829003601f168201915b505092505050600060405180830381600087803b158015610a3a57600080fd5b505af1158015610a4e573d6000803e3d6000fd5b505050506000809054906101000a900473ffffffffffffffffffffffffffffffffffffffff1673ffffffffffffffffffffffffffffffffffffffff16ff5b6000809054906101000a900473ffffffffffffffffffffffffffffffffffffffff1673ffffffffffffffffffffffffffffffffffffffff163373ffffffffffffffffffffffffffffffffffffffff1614610ae557600080fd5b6004604051806040016040528086868080601f016020809104026020016040519081016040528093929190818152602001838380828437600081840152601f19601f82011690508083019250505050505050815260200184848080601f016020809104026020016040519081016040528093929190818152602001838380828437600081840152601f19601f82011690508083019250505050505050815250908060018154018082558091505090600182039060005260206000209060020201600090919290919091506000820151816000019080519060200190610bcb929190611375565b506020820151816001019080519060200190610be8929190611375565b5050505050505050565b606080606060048481548110610c0457fe5b90600052602060002090600202016000018054600181600116156101000203166002900480601f016020809104026020016040519081016040528092919081815260200182805460018160011615610100020316600290048015610ca95780601f10610c7e57610100808354040283529160200191610ca9565b820191906000526020600020905b815481529060010190602001808311610c8c57829003601f168201915b50505050509050606060048581548110610cbf57fe5b90600052602060002090600202016001018054600181600116156101000203166002900480601f016020809104026020016040519081016040528092919081815260200182805460018160011615610100020316600290048015610d645780601f10610d3957610100808354040283529160200191610d64565b820191906000526020600020905b815481529060010190602001808311610d4757829003601f168201915b505050505090508181935093505050915091565b60038054600181600116156101000203166002900480601f016020809104026020016040519081016040528092919081815260200182805460018160011615610100020316600290048015610e0e5780601f10610de357610100808354040283529160200191610e0e565b820191906000526020600020905b815481529060010190602001808311610df157829003601f168201915b505050505081565b60058181548110610e2357fe5b906000526020600020016000915090508054600181600116156101000203166002900480601f016020809104026020016040519081016040528092919081815260200182805460018160011615610100020316600290048015610ec75780601f10610e9c57610100808354040283529160200191610ec7565b820191906000526020600020905b815481529060010190602001808311610eaa57829003601f168201915b505050505081565b6000809054906101000a900473ffffffffffffffffffffffffffffffffffffffff1673ffffffffffffffffffffffffffffffffffffffff163373ffffffffffffffffffffffffffffffffffffffff1614610f2857600080fd5b80600260006101000a81548167ffffffffffffffff021916908367ffffffffffffffff16021790555050565b606060058281548110610f6357fe5b906000526020600020018054600181600116156101000203166002900480601f0160208091040260200160405190810160405280929190818152602001828054600181600116156101000203166002900480156110015780601f10610fd657610100808354040283529160200191611001565b820191906000526020600020905b815481529060010190602001808311610fe457829003601f168201915b50505050509050919050565b60018054600181600116156101000203166002900480601f0160208091040260200160405190810160405280929190818152602001828054600181600116156101000203166002900480156110a35780601f10611078576101008083540402835291602001916110a3565b820191906000526020600020905b81548152906001019060200180831161108657829003601f168201915b505050505081565b6000600480549050905090565b600481815481106110c557fe5b9060005260206000209060020201600091509050806000018054600181600116156101000203166002900480601f0160208091040260200160405190810160405280929190818152602001828054600181600116156101000203166002900480156111715780601f1061114657610100808354040283529160200191611171565b820191906000526020600020905b81548152906001019060200180831161115457829003601f168201915b505050505090806001018054600181600116156101000203166002900480601f01602080910402602001604051908101604052809291908181526020018280546001816001161561010002031660029004801561120f5780601f106111e45761010080835404028352916020019161120f565b820191906000526020600020905b8154815290600101906020018083116111f257829003601f168201915b5050505050905082565b6000600580549050905090565b600260009054906101000a900467ffffffffffffffff1681565b6000809054906101000a900473ffffffffffffffffffffffffffffffffffffffff1673ffffffffffffffffffffffffffffffffffffffff163373ffffffffffffffffffffffffffffffffffffffff161461129957600080fd5b8181600191906112aa9291906112f5565b505050565b60058282909180600181540180825580915050906001820390600052602060002001600090919293909192939091929091925091906112ef9291906112f5565b50505050565b828054600181600116156101000203166002900490600052602060002090601f016020900481019282601f1061133657803560ff1916838001178555611364565b82800160010185558215611364579182015b82811115611363578235825591602001919060010190611348565b5b50905061137191906113f5565b5090565b828054600181600116156101000203166002900490600052602060002090601f016020900481019282601f106113b657805160ff19168380011785556113e4565b828001600101855582156113e4579182015b828111156113e35782518255916020019190600101906113c8565b5b5090506113f191906113f5565b5090565b61141791905b808211156114135760008160009055506001016113fb565b5090565b9056fea265627a7a72315820cb60bb8f1bff5f720f3dcdad0f9aa10b98b533094f73e7d8c697c4ccce8dd0f864736f6c63430005100032",
  "source": "// SPDX-License-Identifier: UNLICENSED\npragma solidity >=0.4.22 <0.8.0;\n\ncontract TLSDID {\n    address payable private owner = msg.sender;\n    string public domain;\n    uint64 public expiry;\n    string public signature;\n\n    Attribute[] public attributes;\n\n    string[] public chains;\n\n    constructor() public {\n        owner = msg.sender;\n    }\n\n    struct Attribute {\n        string path;\n        string value;\n    }\n\n    modifier onlyOwner() {\n        require(msg.sender == owner);\n        _;\n    }\n\n    /// @notice Sets TLS DID domain\n    /// @param _domain The TLS DID domain\n    function setDomain(string calldata _domain) external onlyOwner {\n        domain = _domain;\n    }\n\n    /// @notice Sets TLS DID Contract expiry\n    /// @param _expiry The TLS DID Contract expiry\n    function setExpiry(uint64 _expiry) external onlyOwner {\n        expiry = _expiry;\n    }\n\n    /// @notice Sets TLS DID Contract signature\n    /// @param _signature The TLS DID Contract signature\n    function setSignature(string calldata _signature) external onlyOwner {\n        signature = _signature;\n    }\n\n    /// @notice Adds attribute to DID Document\n    /// @param _path The path to the attribute. Exp. parent/child or parent[]/child\n    /// @param _value The value of the attribute\n    function addAttribute(string calldata _path, string calldata _value)\n        external\n        onlyOwner\n    {\n        attributes.push(Attribute(_path, _value));\n    }\n\n    /// @notice Gets the count of attributes\n    function getAttributeCount() external view returns (uint256) {\n        return attributes.length;\n    }\n\n    /// @notice Gets attribute at index\n    /// @param _index The index of the attribute\n    function getAttribute(uint256 _index)\n        external\n        view\n        returns (string memory, string memory)\n    {\n        string memory path = attributes[_index].path;\n        string memory value = attributes[_index].value;\n        return (path, value);\n    }\n\n    /// @notice Store certificate chain\n    /// @dev The chains are stored in an array to allow access to old chains.\n    /// @param _chain The certificate chain to be stored\n    function addChain(string calldata _chain) external {\n        chains.push(_chain);\n    }\n\n    /// @notice Returns the number of certificate chains stored\n    function getChainCount() external view returns (uint256) {\n        return chains.length;\n    }\n\n    /// @notice Gets the certificate chain at index\n    /// @param _index The index of the certificate chain\n    function getChain(uint256 _index) external view returns (string memory) {\n        return chains[_index];\n    }\n\n    /// @notice Removes the reference to this contract from registry\n    /// and deletes contract\n    /// @param _RegistryAddress The address of the registry\n    function remove(address _RegistryAddress) external onlyOwner {\n        TLSDIDRegistry registry = TLSDIDRegistry(_RegistryAddress);\n        registry.removeContract(domain);\n        selfdestruct(owner);\n    }\n}\n\ninterface TLSDIDRegistry {\n    function removeContract(string calldata _id) external;\n}\n",
  "sourcePath": "/Users/kilian/Documents/tls-did-project/tls-did-registry/contracts/TLSDID.sol",
  "compiler": {
    "name": "solc",
    "version": "0.5.16+commit.9c3226ce.Emscripten.clang"
  },
  "schemaVersion": "3.3.0",
  "updatedAt": "2021-01-14T11:59:08.427Z",
  "devdoc": {
    "methods": {
      "addAttribute(string,string)": {
        "params": {
          "_path": "The path to the attribute. Exp. parent/child or parent[]/child",
          "_value": "The value of the attribute"
        }
      },
      "addChain(string)": {
        "details": "The chains are stored in an array to allow access to old chains.",
        "params": {
          "_chain": "The certificate chain to be stored"
        }
      },
      "getAttribute(uint256)": {
        "params": {
          "_index": "The index of the attribute"
        }
      },
      "getChain(uint256)": {
        "params": {
          "_index": "The index of the certificate chain"
        }
      },
      "remove(address)": {
        "params": {
          "_RegistryAddress": "The address of the registry"
        }
      },
      "setDomain(string)": {
        "params": {
          "_domain": "The TLS DID domain"
        }
      },
      "setExpiry(uint64)": {
        "params": {
          "_expiry": "The TLS DID Contract expiry"
        }
      },
      "setSignature(string)": {
        "params": {
          "_signature": "The TLS DID Contract signature"
        }
      }
    }
  },
  "userdoc": {
    "methods": {
      "addAttribute(string,string)": {
        "notice": "Adds attribute to DID Document"
      },
      "addChain(string)": {
        "notice": "Store certificate chain"
      },
      "getAttribute(uint256)": {
        "notice": "Gets attribute at index"
      },
      "getAttributeCount()": {
        "notice": "Gets the count of attributes"
      },
      "getChain(uint256)": {
        "notice": "Gets the certificate chain at index"
      },
      "getChainCount()": {
        "notice": "Returns the number of certificate chains stored"
      },
      "remove(address)": {
        "notice": "Removes the reference to this contract from registry and deletes contract"
      },
      "setDomain(string)": {
        "notice": "Sets TLS DID domain"
      },
      "setExpiry(uint64)": {
        "notice": "Sets TLS DID Contract expiry"
      },
      "setSignature(string)": {
        "notice": "Sets TLS DID Contract signature"
      }
    }
  }
}