{
  "contractName": "TLSDIDRegistry",
  "abi": [
    {
      "anonymous": false,
      "inputs": [
        {
          "indexed": true,
          "internalType": "address",
          "name": "owner",
          "type": "address"
        },
        {
          "indexed": false,
          "internalType": "string",
          "name": "domain",
          "type": "string"
        },
        {
          "indexed": false,
          "internalType": "string",
          "name": "path",
          "type": "string"
        },
        {
          "indexed": false,
          "internalType": "string",
          "name": "value",
          "type": "string"
        },
        {
          "indexed": false,
          "internalType": "uint256",
          "name": "previousChange",
          "type": "uint256"
        }
      ],
      "name": "AttributeChanged",
      "type": "event"
    },
    {
      "anonymous": false,
      "inputs": [
        {
          "indexed": true,
          "internalType": "address",
          "name": "owner",
          "type": "address"
        },
        {
          "indexed": false,
          "internalType": "string",
          "name": "domain",
          "type": "string"
        },
        {
          "indexed": false,
          "internalType": "string",
          "name": "chain",
          "type": "string"
        },
        {
          "indexed": false,
          "internalType": "uint256",
          "name": "previousChange",
          "type": "uint256"
        }
      ],
      "name": "ChainChanged",
      "type": "event"
    },
    {
      "anonymous": false,
      "inputs": [
        {
          "indexed": true,
          "internalType": "address",
          "name": "owner",
          "type": "address"
        },
        {
          "indexed": false,
          "internalType": "string",
          "name": "domain",
          "type": "string"
        },
        {
          "indexed": false,
          "internalType": "uint64",
          "name": "expiry",
          "type": "uint64"
        },
        {
          "indexed": false,
          "internalType": "uint256",
          "name": "previousChange",
          "type": "uint256"
        }
      ],
      "name": "ExpiryChanged",
      "type": "event"
    },
    {
      "anonymous": false,
      "inputs": [
        {
          "indexed": true,
          "internalType": "address",
          "name": "owner",
          "type": "address"
        },
        {
          "indexed": false,
          "internalType": "string",
          "name": "domain",
          "type": "string"
        },
        {
          "indexed": false,
          "internalType": "string",
          "name": "signature",
          "type": "string"
        },
        {
          "indexed": false,
          "internalType": "uint256",
          "name": "previousChange",
          "type": "uint256"
        }
      ],
      "name": "SignatureChanged",
      "type": "event"
    },
    {
      "constant": true,
      "inputs": [
        {
          "internalType": "string",
          "name": "",
          "type": "string"
        },
        {
          "internalType": "uint256",
          "name": "",
          "type": "uint256"
        }
      ],
      "name": "identities",
      "outputs": [
        {
          "internalType": "uint256",
          "name": "",
          "type": "uint256"
        }
      ],
      "payable": false,
      "stateMutability": "view",
      "type": "function"
    },
    {
      "constant": true,
      "inputs": [
        {
          "internalType": "address",
          "name": "",
          "type": "address"
        },
        {
          "internalType": "string",
          "name": "",
          "type": "string"
        }
      ],
      "name": "owned",
      "outputs": [
        {
          "internalType": "uint256",
          "name": "",
          "type": "uint256"
        }
      ],
      "payable": false,
      "stateMutability": "view",
      "type": "function"
    },
    {
      "constant": false,
      "inputs": [
        {
          "internalType": "string",
          "name": "_domain",
          "type": "string"
        },
        {
          "internalType": "uint64",
          "name": "_expiry",
          "type": "uint64"
        }
      ],
      "name": "setExpiry",
      "outputs": [],
      "payable": false,
      "stateMutability": "nonpayable",
      "type": "function"
    },
    {
      "constant": false,
      "inputs": [
        {
          "internalType": "string",
          "name": "_domain",
          "type": "string"
        },
        {
          "internalType": "string",
          "name": "_signature",
          "type": "string"
        }
      ],
      "name": "setSignature",
      "outputs": [],
      "payable": false,
      "stateMutability": "nonpayable",
      "type": "function"
    },
    {
      "constant": false,
      "inputs": [
        {
          "internalType": "string",
          "name": "_domain",
          "type": "string"
        },
        {
          "internalType": "string",
          "name": "_path",
          "type": "string"
        },
        {
          "internalType": "string",
          "name": "_value",
          "type": "string"
        }
      ],
      "name": "addAttribute",
      "outputs": [],
      "payable": false,
      "stateMutability": "nonpayable",
      "type": "function"
    },
    {
      "constant": false,
      "inputs": [
        {
          "internalType": "string",
          "name": "_domain",
          "type": "string"
        },
        {
          "internalType": "string",
          "name": "_chain",
          "type": "string"
        }
      ],
      "name": "addChain",
      "outputs": [],
      "payable": false,
      "stateMutability": "nonpayable",
      "type": "function"
    },
    {
      "constant": false,
      "inputs": [
        {
          "internalType": "string",
          "name": "_domain",
          "type": "string"
        }
      ],
      "name": "remove",
      "outputs": [],
      "payable": false,
      "stateMutability": "nonpayable",
      "type": "function"
    }
  ],
  "bytecode": "0x608060405234801561001057600080fd5b50610d69806100206000396000f3fe608060405234801561001057600080fd5b506004361061007d5760003560e01c8063a65e65a41161005b578063a65e65a4146102b8578063a9f940c314610345578063bbb1855614610413578063f6374dfe146104ec5761007d565b806380599e4b14610082578063809dc24f146100fb578063a3ed4c19146101ea575b600080fd5b6100f96004803603602081101561009857600080fd5b81019080803590602001906401000000008111156100b557600080fd5b8201836020820111156100c757600080fd5b803590602001918460018302840111640100000000831117156100e957600080fd5b909192939192939050505061060f565b005b6101d46004803603604081101561011157600080fd5b81019080803573ffffffffffffffffffffffffffffffffffffffff1690602001909291908035906020019064010000000081111561014e57600080fd5b82018360208201111561016057600080fd5b8035906020019184600183028401116401000000008311171561018257600080fd5b91908080601f016020809104026020016040519081016040528093929190818152602001838380828437600081840152601f19601f82011690508083019250505050505050919291929050505061067c565b6040518082815260200191505060405180910390f35b6102b66004803603604081101561020057600080fd5b810190808035906020019064010000000081111561021d57600080fd5b82018360208201111561022f57600080fd5b8035906020019184600183028401116401000000008311171561025157600080fd5b90919293919293908035906020019064010000000081111561027257600080fd5b82018360208201111561028457600080fd5b803590602001918460018302840111640100000000831117156102a657600080fd5b90919293919293905050506106b7565b005b610343600480360360408110156102ce57600080fd5b81019080803590602001906401000000008111156102eb57600080fd5b8201836020820111156102fd57600080fd5b8035906020019184600183028401116401000000008311171561031f57600080fd5b9091929391929390803567ffffffffffffffff16906020019092919050505061083e565b005b6104116004803603604081101561035b57600080fd5b810190808035906020019064010000000081111561037857600080fd5b82018360208201111561038a57600080fd5b803590602001918460018302840111640100000000831117156103ac57600080fd5b9091929391929390803590602001906401000000008111156103cd57600080fd5b8201836020820111156103df57600080fd5b8035906020019184600183028401116401000000008311171561040157600080fd5b90919293919293905050506109ac565b005b6104d66004803603604081101561042957600080fd5b810190808035906020019064010000000081111561044657600080fd5b82018360208201111561045857600080fd5b8035906020019184600183028401116401000000008311171561047a57600080fd5b91908080601f016020809104026020016040519081016040528093929190818152602001838380828437600081840152601f19601f82011690508083019250505050505050919291929080359060200190929190505050610b33565b6040518082815260200191505060405180910390f35b61060d6004803603606081101561050257600080fd5b810190808035906020019064010000000081111561051f57600080fd5b82018360208201111561053157600080fd5b8035906020019184600183028401116401000000008311171561055357600080fd5b90919293919293908035906020019064010000000081111561057457600080fd5b82018360208201111561058657600080fd5b803590602001918460018302840111640100000000831117156105a857600080fd5b9091929391929390803590602001906401000000008111156105c957600080fd5b8201836020820111156105db57600080fd5b803590602001918460018302840111640100000000831117156105fd57600080fd5b9091929391929390505050610b77565b005b60008060003373ffffffffffffffffffffffffffffffffffffffff1673ffffffffffffffffffffffffffffffffffffffff16815260200190815260200160002083836040518083838082843780830192505050925050509081526020016040518091039020819055505050565b600060205281600052604060002081805160208101820180518482526020830160208501208183528095505050505050600091509150505481565b3373ffffffffffffffffffffffffffffffffffffffff167f5a71ddff10bd9b308c50894a75a3fafd5a76e218ff130b4306ea32e523428585858585856000803373ffffffffffffffffffffffffffffffffffffffff1673ffffffffffffffffffffffffffffffffffffffff1681526020019081526020016000208a8a6040518083838082843780830192505050925050509081526020016040518091039020546040518080602001806020018481526020018381038352888882818152602001925080828437600081840152601f19601f8201169050808301925050508381038252868682818152602001925080828437600081840152601f19601f82011690508083019250505097505050505050505060405180910390a2436000803373ffffffffffffffffffffffffffffffffffffffff1673ffffffffffffffffffffffffffffffffffffffff168152602001908152602001600020858560405180838380828437808301925050509250505090815260200160405180910390208190555050505050565b3373ffffffffffffffffffffffffffffffffffffffff167f7fa008dd2d29797d376e579e848ef7f11a2525b545b3c4b510d243fbe5b6ecb88484846000803373ffffffffffffffffffffffffffffffffffffffff1673ffffffffffffffffffffffffffffffffffffffff168152602001908152602001600020888860405180838380828437808301925050509250505090815260200160405180910390205460405180806020018467ffffffffffffffff1667ffffffffffffffff1681526020018381526020018281038252868682818152602001925080828437600081840152601f19601f8201169050808301925050509550505050505060405180910390a2436000803373ffffffffffffffffffffffffffffffffffffffff1673ffffffffffffffffffffffffffffffffffffffff1681526020019081526020016000208484604051808383808284378083019250505092505050908152602001604051809103902081905550505050565b3373ffffffffffffffffffffffffffffffffffffffff167f852f5320b05dafa71c7532b2c338ae5102d1916bd715787305a36a9d2a0a3810858585856000803373ffffffffffffffffffffffffffffffffffffffff1673ffffffffffffffffffffffffffffffffffffffff1681526020019081526020016000208a8a6040518083838082843780830192505050925050509081526020016040518091039020546040518080602001806020018481526020018381038352888882818152602001925080828437600081840152601f19601f8201169050808301925050508381038252868682818152602001925080828437600081840152601f19601f82011690508083019250505097505050505050505060405180910390a2436000803373ffffffffffffffffffffffffffffffffffffffff1673ffffffffffffffffffffffffffffffffffffffff168152602001908152602001600020858560405180838380828437808301925050509250505090815260200160405180910390208190555050505050565b6001828051602081018201805184825260208301602085012081835280955050505050508181548110610b6257fe5b90600052602060002001600091509150505481565b3373ffffffffffffffffffffffffffffffffffffffff167f85868e1b8b59151367fe71a42e78968f326bf115df92e53e94d7f921fc232d068787878787876000803373ffffffffffffffffffffffffffffffffffffffff1673ffffffffffffffffffffffffffffffffffffffff1681526020019081526020016000208e8e6040518083838082843780830192505050925050509081526020016040518091039020546040518080602001806020018060200185815260200184810384528b8b82818152602001925080828437600081840152601f19601f8201169050808301925050508481038352898982818152602001925080828437600081840152601f19601f8201169050808301925050508481038252878782818152602001925080828437600081840152601f19601f8201169050808301925050509a505050505050505050505060405180910390a2436000803373ffffffffffffffffffffffffffffffffffffffff1673ffffffffffffffffffffffffffffffffffffffff168152602001908152602001600020878760405180838380828437808301925050509250505090815260200160405180910390208190555050505050505056fea265627a7a7231582050e229febfea5ba6d970d83fd528e40bee753d18b3007bf10894064f8895404064736f6c63430005100032",
  "source": "// SPDX-License-Identifier: UNLICENSED\npragma solidity >=0.4.22 <0.8.0;\n\ncontract TLSDIDRegistry {\n    mapping(address => mapping(string => uint256)) public owned;\n\n    mapping(string => uint256[]) public identities;\n\n    event ExpiryChanged(address indexed owner, string domain, uint64 expiry, uint256 previousChange);\n\n    event SignatureChanged(address indexed owner, string domain, string signature, uint256 previousChange);\n\n    event AttributeChanged(address indexed owner, string domain, string path, string value, uint256 previousChange);\n\n    event ChainChanged(address indexed owner, string domain, string chain, uint256 previousChange);\n\n    /// @notice Sets TLS DID Contract expiry\n    /// @param _expiry The TLS DID Contract expiry\n    function setExpiry(string calldata _domain, uint64 _expiry) external {\n        emit ExpiryChanged(msg.sender, _domain, _expiry, owned[msg.sender][_domain]);\n        owned[msg.sender][_domain] = block.number;\n    }\n\n    /// @notice Sets TLS DID Contract signature\n    /// @param _domain The indentifier of the TLS-DID\n    /// @param _signature The TLS DID Contract signature\n    function setSignature(string calldata _domain, string calldata _signature) external {\n        emit SignatureChanged(msg.sender, _domain, _signature, owned[msg.sender][_domain]);\n        owned[msg.sender][_domain] = block.number;\n    }\n\n    /// @notice Adds attribute\n    /// @param _domain The indentifier of the TLS-DID\n    /// @param _path The path to the attribute. Exp. parent/child or parent[]/child\n    /// @param _value The value of the attribute\n    function addAttribute(\n        string calldata _domain,\n        string calldata _path,\n        string calldata _value\n    ) external {\n        emit AttributeChanged(msg.sender, _domain, _path, _value, owned[msg.sender][_domain]);\n        owned[msg.sender][_domain] = block.number;\n    }\n\n    /// @notice Add certificate chain\n    /// @param _domain The indentifier of the TLS-DID\n    /// @param _chain The certificate chain to be stored\n    function addChain(string calldata _domain, string calldata _chain) external {\n        emit ChainChanged(msg.sender, _domain, _chain, owned[msg.sender][_domain]);\n        owned[msg.sender][_domain] = block.number;\n    }\n\n    /// @notice Resets the changed index to 0 for the domain of sender.\n    /// @param _domain The indentifier of the TLS-DID\n    function remove(string calldata _domain) external {\n        owned[msg.sender][_domain] = 0;\n    }\n}\n",
  "sourcePath": "/Users/kilian/Documents/tls-did-project/tls-did-registry/contracts/TLSDIDRegistry.sol",
  "compiler": {
    "name": "solc",
    "version": "0.5.16+commit.9c3226ce.Emscripten.clang"
  },
  "schemaVersion": "3.3.3",
  "updatedAt": "2021-03-13T19:03:43.676Z",
  "devdoc": {
    "methods": {
      "addAttribute(string,string,string)": {
        "params": {
          "_domain": "The indentifier of the TLS-DID",
          "_path": "The path to the attribute. Exp. parent/child or parent[]/child",
          "_value": "The value of the attribute"
        }
      },
      "addChain(string,string)": {
        "params": {
          "_chain": "The certificate chain to be stored",
          "_domain": "The indentifier of the TLS-DID"
        }
      },
      "remove(string)": {
        "params": {
          "_domain": "The indentifier of the TLS-DID"
        }
      },
      "setExpiry(string,uint64)": {
        "params": {
          "_expiry": "The TLS DID Contract expiry"
        }
      },
      "setSignature(string,string)": {
        "params": {
          "_domain": "The indentifier of the TLS-DID",
          "_signature": "The TLS DID Contract signature"
        }
      }
    }
  },
  "userdoc": {
    "methods": {
      "addAttribute(string,string,string)": {
        "notice": "Adds attribute"
      },
      "addChain(string,string)": {
        "notice": "Add certificate chain"
      },
      "remove(string)": {
        "notice": "Resets the changed index to 0 for the domain of sender."
      },
      "setExpiry(string,uint64)": {
        "notice": "Sets TLS DID Contract expiry"
      },
      "setSignature(string,string)": {
        "notice": "Sets TLS DID Contract signature"
      }
    }
  }
}