{
  "contractName": "TLSDID",
  "abi": [
    {
      "inputs": [],
      "payable": false,
      "stateMutability": "nonpayable",
      "type": "constructor"
    },
    {
      "constant": true,
      "inputs": [
        {
          "internalType": "uint256",
          "name": "",
          "type": "uint256"
        }
      ],
      "name": "attributes",
      "outputs": [
        {
          "internalType": "string",
          "name": "path",
          "type": "string"
        },
        {
          "internalType": "string",
          "name": "value",
          "type": "string"
        }
      ],
      "payable": false,
      "stateMutability": "view",
      "type": "function"
    },
    {
      "constant": true,
      "inputs": [],
      "name": "domain",
      "outputs": [
        {
          "internalType": "string",
          "name": "",
          "type": "string"
        }
      ],
      "payable": false,
      "stateMutability": "view",
      "type": "function"
    },
    {
      "constant": true,
      "inputs": [],
      "name": "expiry",
      "outputs": [
        {
          "internalType": "uint64",
          "name": "",
          "type": "uint64"
        }
      ],
      "payable": false,
      "stateMutability": "view",
      "type": "function"
    },
    {
      "constant": true,
      "inputs": [],
      "name": "signature",
      "outputs": [
        {
          "internalType": "string",
          "name": "",
          "type": "string"
        }
      ],
      "payable": false,
      "stateMutability": "view",
      "type": "function"
    },
    {
      "constant": false,
      "inputs": [
        {
          "internalType": "string",
          "name": "_domain",
          "type": "string"
        }
      ],
      "name": "setDomain",
      "outputs": [],
      "payable": false,
      "stateMutability": "nonpayable",
      "type": "function"
    },
    {
      "constant": false,
      "inputs": [
        {
          "internalType": "uint64",
          "name": "_expiry",
          "type": "uint64"
        }
      ],
      "name": "setExpiry",
      "outputs": [],
      "payable": false,
      "stateMutability": "nonpayable",
      "type": "function"
    },
    {
      "constant": false,
      "inputs": [
        {
          "internalType": "string",
          "name": "_signature",
          "type": "string"
        }
      ],
      "name": "setSignature",
      "outputs": [],
      "payable": false,
      "stateMutability": "nonpayable",
      "type": "function"
    },
    {
      "constant": false,
      "inputs": [
        {
          "internalType": "string",
          "name": "_path",
          "type": "string"
        },
        {
          "internalType": "string",
          "name": "_value",
          "type": "string"
        }
      ],
      "name": "addAttribute",
      "outputs": [],
      "payable": false,
      "stateMutability": "nonpayable",
      "type": "function"
    },
    {
      "constant": true,
      "inputs": [],
      "name": "getAttributeCount",
      "outputs": [
        {
          "internalType": "uint256",
          "name": "",
          "type": "uint256"
        }
      ],
      "payable": false,
      "stateMutability": "view",
      "type": "function"
    },
    {
      "constant": true,
      "inputs": [
        {
          "internalType": "uint256",
          "name": "_index",
          "type": "uint256"
        }
      ],
      "name": "getAttribute",
      "outputs": [
        {
          "internalType": "string",
          "name": "",
          "type": "string"
        },
        {
          "internalType": "string",
          "name": "",
          "type": "string"
        }
      ],
      "payable": false,
      "stateMutability": "view",
      "type": "function"
    }
  ],
  "bytecode": "0x6080604052336000806101000a81548173ffffffffffffffffffffffffffffffffffffffff021916908373ffffffffffffffffffffffffffffffffffffffff16021790555034801561005057600080fd5b50336000806101000a81548173ffffffffffffffffffffffffffffffffffffffff021916908373ffffffffffffffffffffffffffffffffffffffff160217905550610e84806100a06000396000f3fe608060405234801561001057600080fd5b506004361061009e5760003560e01c8063c2fb26a611610066578063c2fb26a6146103b8578063c93ead1b1461043b578063d05dcc6a14610459578063e184c9be1461056c578063e5eab0961461059e5761009e565b80632782fb22146100a35780632ba568341461011c578063493fe80f146101ea57806351ff4847146102fd578063a2eccb6f14610380575b600080fd5b61011a600480360360208110156100b957600080fd5b81019080803590602001906401000000008111156100d657600080fd5b8201836020820111156100e857600080fd5b8035906020019184600183028401116401000000008311171561010a57600080fd5b9091929391929390505050610617565b005b6101e86004803603604081101561013257600080fd5b810190808035906020019064010000000081111561014f57600080fd5b82018360208201111561016157600080fd5b8035906020019184600183028401116401000000008311171561018357600080fd5b9091929391929390803590602001906401000000008111156101a457600080fd5b8201836020820111156101b657600080fd5b803590602001918460018302840111640100000000831117156101d857600080fd5b9091929391929390505050610686565b005b6102166004803603602081101561020057600080fd5b81019080803590602001909291905050506107ec565b604051808060200180602001838103835285818151815260200191508051906020019080838360005b8381101561025a57808201518184015260208101905061023f565b50505050905090810190601f1680156102875780820380516001836020036101000a031916815260200191505b50838103825284818151815260200191508051906020019080838360005b838110156102c05780820151818401526020810190506102a5565b50505050905090810190601f1680156102ed5780820380516001836020036101000a031916815260200191505b5094505050505060405180910390f35b610305610972565b6040518080602001828103825283818151815260200191508051906020019080838360005b8381101561034557808201518184015260208101905061032a565b50505050905090810190601f1680156103725780820380516001836020036101000a031916815260200191505b509250505060405180910390f35b6103b66004803603602081101561039657600080fd5b81019080803567ffffffffffffffff169060200190929190505050610a10565b005b6103c0610a95565b6040518080602001828103825283818151815260200191508051906020019080838360005b838110156104005780820151818401526020810190506103e5565b50505050905090810190601f16801561042d5780820380516001836020036101000a031916815260200191505b509250505060405180910390f35b610443610b33565b6040518082815260200191505060405180910390f35b6104856004803603602081101561046f57600080fd5b8101908080359060200190929190505050610b40565b604051808060200180602001838103835285818151815260200191508051906020019080838360005b838110156104c95780820151818401526020810190506104ae565b50505050905090810190601f1680156104f65780820380516001836020036101000a031916815260200191505b50838103825284818151815260200191508051906020019080838360005b8381101561052f578082015181840152602081019050610514565b50505050905090810190601f16801561055c5780820380516001836020036101000a031916815260200191505b5094505050505060405180910390f35b610574610ca1565b604051808267ffffffffffffffff1667ffffffffffffffff16815260200191505060405180910390f35b610615600480360360208110156105b457600080fd5b81019080803590602001906401000000008111156105d157600080fd5b8201836020820111156105e357600080fd5b8035906020019184600183028401116401000000008311171561060557600080fd5b9091929391929390505050610cbb565b005b6000809054906101000a900473ffffffffffffffffffffffffffffffffffffffff1673ffffffffffffffffffffffffffffffffffffffff163373ffffffffffffffffffffffffffffffffffffffff161461067057600080fd5b818160039190610681929190610d2a565b505050565b6000809054906101000a900473ffffffffffffffffffffffffffffffffffffffff1673ffffffffffffffffffffffffffffffffffffffff163373ffffffffffffffffffffffffffffffffffffffff16146106df57600080fd5b6004604051806040016040528086868080601f016020809104026020016040519081016040528093929190818152602001838380828437600081840152601f19601f82011690508083019250505050505050815260200184848080601f016020809104026020016040519081016040528093929190818152602001838380828437600081840152601f19601f820116905080830192505050505050508152509080600181540180825580915050906001820390600052602060002090600202016000909192909190915060008201518160000190805190602001906107c5929190610daa565b5060208201518160010190805190602001906107e2929190610daa565b5050505050505050565b6060806060600484815481106107fe57fe5b90600052602060002090600202016000018054600181600116156101000203166002900480601f0160208091040260200160405190810160405280929190818152602001828054600181600116156101000203166002900480156108a35780601f10610878576101008083540402835291602001916108a3565b820191906000526020600020905b81548152906001019060200180831161088657829003601f168201915b505050505090506060600485815481106108b957fe5b90600052602060002090600202016001018054600181600116156101000203166002900480601f01602080910402602001604051908101604052809291908181526020018280546001816001161561010002031660029004801561095e5780601f106109335761010080835404028352916020019161095e565b820191906000526020600020905b81548152906001019060200180831161094157829003601f168201915b505050505090508181935093505050915091565b60038054600181600116156101000203166002900480601f016020809104026020016040519081016040528092919081815260200182805460018160011615610100020316600290048015610a085780601f106109dd57610100808354040283529160200191610a08565b820191906000526020600020905b8154815290600101906020018083116109eb57829003601f168201915b505050505081565b6000809054906101000a900473ffffffffffffffffffffffffffffffffffffffff1673ffffffffffffffffffffffffffffffffffffffff163373ffffffffffffffffffffffffffffffffffffffff1614610a6957600080fd5b80600260006101000a81548167ffffffffffffffff021916908367ffffffffffffffff16021790555050565b60018054600181600116156101000203166002900480601f016020809104026020016040519081016040528092919081815260200182805460018160011615610100020316600290048015610b2b5780601f10610b0057610100808354040283529160200191610b2b565b820191906000526020600020905b815481529060010190602001808311610b0e57829003601f168201915b505050505081565b6000600480549050905090565b60048181548110610b4d57fe5b9060005260206000209060020201600091509050806000018054600181600116156101000203166002900480601f016020809104026020016040519081016040528092919081815260200182805460018160011615610100020316600290048015610bf95780601f10610bce57610100808354040283529160200191610bf9565b820191906000526020600020905b815481529060010190602001808311610bdc57829003601f168201915b505050505090806001018054600181600116156101000203166002900480601f016020809104026020016040519081016040528092919081815260200182805460018160011615610100020316600290048015610c975780601f10610c6c57610100808354040283529160200191610c97565b820191906000526020600020905b815481529060010190602001808311610c7a57829003601f168201915b5050505050905082565b600260009054906101000a900467ffffffffffffffff1681565b6000809054906101000a900473ffffffffffffffffffffffffffffffffffffffff1673ffffffffffffffffffffffffffffffffffffffff163373ffffffffffffffffffffffffffffffffffffffff1614610d1457600080fd5b818160019190610d25929190610d2a565b505050565b828054600181600116156101000203166002900490600052602060002090601f016020900481019282601f10610d6b57803560ff1916838001178555610d99565b82800160010185558215610d99579182015b82811115610d98578235825591602001919060010190610d7d565b5b509050610da69190610e2a565b5090565b828054600181600116156101000203166002900490600052602060002090601f016020900481019282601f10610deb57805160ff1916838001178555610e19565b82800160010185558215610e19579182015b82811115610e18578251825591602001919060010190610dfd565b5b509050610e269190610e2a565b5090565b610e4c91905b80821115610e48576000816000905550600101610e30565b5090565b9056fea265627a7a72315820331bd4a66d7e1f932becf86cf6bb510f18b77a467f5b6df0d51550fee1b614e864736f6c63430005100032",
  "source": "// SPDX-License-Identifier: UNLICENSED\npragma solidity >=0.4.22 <0.8.0;\n\ncontract TLSDID {\n    address private owner = msg.sender;\n    string public domain;\n    uint64 public expiry;\n    string public signature;\n\n    Attribute[] public attributes;\n\n    constructor() public {\n        owner = msg.sender;\n    }\n\n    struct Attribute {\n        string path;\n        string value;\n    }\n\n    modifier onlyOwner() {\n        require(msg.sender == owner);\n        _;\n    }\n\n    /// @notice Sets TLS DID domain\n    /// @param _domain The TLS DID domain\n    function setDomain(string calldata _domain) external onlyOwner {\n        domain = _domain;\n    }\n\n    /// @notice Sets TLS DID Contract expiry\n    /// @param _expiry The TLS DID Contract expiry\n    function setExpiry(uint64 _expiry) external onlyOwner {\n        expiry = _expiry;\n    }\n\n    /// @notice Sets TLS DID Contract signature\n    /// @param _signature The TLS DID Contract signature\n    function setSignature(string calldata _signature) external onlyOwner {\n        signature = _signature;\n    }\n\n    /// @notice Adds attribute to DID Document\n    /// @param _path The path to the attribute. Exp. parent/child or parent[]/child\n    /// @param _value The value of the attribute\n    function addAttribute(string calldata _path, string calldata _value)\n        external\n        onlyOwner\n    {\n        attributes.push(Attribute(_path, _value));\n    }\n\n    /// @notice Gets the count of attributes\n    function getAttributeCount() external view returns (uint256) {\n        return attributes.length;\n    }\n\n    /// @notice Gets attribute at index\n    /// @param _index The index of the attribute\n    function getAttribute(uint256 _index)\n        external\n        view\n        returns (string memory, string memory)\n    {\n        string memory path = attributes[_index].path;\n        string memory value = attributes[_index].value;\n        return (path, value);\n    }\n}\n",
  "sourcePath": "/Users/kilian/Documents/tls-did-project/tls-did-registry/contracts/TLSDID.sol",
  "compiler": {
    "name": "solc",
    "version": "0.5.16+commit.9c3226ce.Emscripten.clang"
  },
  "schemaVersion": "3.3.0",
  "updatedAt": "2020-11-20T11:46:35.631Z",
  "networkType": "ethereum",
  "devdoc": {
    "methods": {
      "addAttribute(string,string)": {
        "params": {
          "_path": "The path to the attribute. Exp. parent/child or parent[]/child",
          "_value": "The value of the attribute"
        }
      },
      "getAttribute(uint256)": {
        "params": {
          "_index": "The index of the attribute"
        }
      },
      "setDomain(string)": {
        "params": {
          "_domain": "The TLS DID domain"
        }
      },
      "setExpiry(uint64)": {
        "params": {
          "_expiry": "The TLS DID Contract expiry"
        }
      },
      "setSignature(string)": {
        "params": {
          "_signature": "The TLS DID Contract signature"
        }
      }
    }
  },
  "userdoc": {
    "methods": {
      "addAttribute(string,string)": {
        "notice": "Adds attribute to DID Document"
      },
      "getAttribute(uint256)": {
        "notice": "Gets attribute at index"
      },
      "getAttributeCount()": {
        "notice": "Gets the count of attributes"
      },
      "setDomain(string)": {
        "notice": "Sets TLS DID domain"
      },
      "setExpiry(uint64)": {
        "notice": "Sets TLS DID Contract expiry"
      },
      "setSignature(string)": {
        "notice": "Sets TLS DID Contract signature"
      }
    }
  }
}